:020000040800F2
:100000000080002069E20008F5E20008CDD4000875
:1000100000000000000000000000000000000000E0
:10002000000000000000000000000000D5FE0008F5
:10003000000000000000000081FF0008C1D400089B
:10004000F5E20008F5E20008F5E20008F5E2000834
:10005000F5E20008F5E20008F5E20008F5E2000824
:10006000F5E2000851D500085DD500089DD50008CF
:10007000F5E20008F5E20008F5E20008F5E2000804
:10008000F5E20008F5E20008F5E20008F5E20008F4
:10009000F5E20008F5E20008F5E20008F5E20008E4
:1000A000F5E20008F5E20008F5E2000805D50008D1
:0C00B00015D5000825D50008F5E2000871
:1000BC0010B5064C2378002B07D1054B002B02D032
:1000CC00044800E000BF0123237010BDC80A0020C3
:1000DC000000000024870108044B10B5002B03D04E
:1000EC000349044800E000BF10BDC04600000000FA
:1000FC00CC0A00202487010802780B78002A03D050
:10010C00013001319A42F7D0D01A70470023C25CFB
:10011C000133002AFBD1581E7047000002B471460F
:10012C0049084900095C49008E4402BC7047C0462E
:10013C0003B47146490840004900095E49008E44E9
:10014C0003BC7047002243088B4274D303098B42D3
:10015C005FD3030A8B4244D3030B8B4228D3030C8B
:10016C008B420DD3FF22090212BA030C8B4202D32D
:10017C001212090265D0030B8B4219D300E0090A55
:10018C00C30B8B4201D3CB03C01A5241830B8B425E
:10019C0001D38B03C01A5241430B8B4201D34B0347
:1001AC00C01A5241030B8B4201D30B03C01A5241AC
:1001BC00C30A8B4201D3CB02C01A5241830A8B4231
:1001CC0001D38B02C01A5241430A8B4201D34B021A
:1001DC00C01A5241030A8B4201D30B02C01A52417E
:1001EC00CDD2C3098B4201D3CB01C01A5241830932
:1001FC008B4201D38B01C01A524143098B4201D36C
:10020C004B01C01A524103098B4201D30B01C01A96
:10021C005241C3088B4201D3CB00C01A5241830810
:10022C008B4201D38B00C01A524143088B4201D33D
:10023C004B00C01A5241411A00D20146524110469D
:10024C007047FFE701B5002000F0F0F802BDC04692
:10025C000029F7D076E7704703460B437FD4002282
:10026C0043088B4274D303098B425FD3030A8B423E
:10027C0044D3030B8B4228D3030C8B420DD3FF22A8
:10028C00090212BA030C8B4202D31212090265D076
:10029C00030B8B4219D300E0090AC30B8B4201D329
:1002AC00CB03C01A5241830B8B4201D38B03C01A70
:1002BC005241430B8B4201D34B03C01A5241030BE7
:1002CC008B4201D30B03C01A5241C30A8B4201D398
:1002DC00CB02C01A5241830A8B4201D38B02C01A43
:1002EC005241430A8B4201D34B02C01A5241030ABA
:1002FC008B4201D30B02C01A5241CDD2C3098B429F
:10030C0001D3CB01C01A524183098B4201D38B011B
:10031C00C01A524143098B4201D34B01C01A5241BE
:10032C0003098B4201D30B01C01A5241C3088B4203
:10033C0001D3CB00C01A524183088B4201D38B00EE
:10034C00C01A524143088B4201D34B00C01A524190
:10035C00411A00D201465241104670475DE0CA0F67
:10036C0000D04942031000D34042534000229C4627
:10037C0003098B422DD3030A8B4212D3FC22890131
:10038C0012BA030A8B420CD3890192118B4208D307
:10039C00890192118B4204D389013AD0921100E069
:1003AC008909C3098B4201D3CB01C01A524183097D
:1003BC008B4201D38B01C01A524143098B4201D3AA
:1003CC004B01C01A524103098B4201D30B01C01AD5
:1003DC005241C3088B4201D3CB00C01A524183084F
:1003EC008B4201D38B00C01A5241D9D243088B42A5
:1003FC0001D34B00C01A5241411A00D20146634648
:10040C0052415B10104601D34042002B00D54942AB
:10041C00704763465B1000D3404201B5002000F0EA
:10042C0005F802BD0029F8D016E770477047C046A2
:10043C008446101C62468C46191C634600E0C0467C
:10044C001FB501F089FC002801D40021C8421FBD52
:10045C0010B501F0E1FB4042013010BD10B501F0C8
:10046C007BFC002801DB002010BD012010BDC04624
:10047C0010B501F071FC002801DD002010BD012039
:10048C0010BDC04610B501F003FC002801DC0020B3
:10049C0010BD012010BDC04610B501F0F9FB0028BD
:1004AC0001DA002010BD012010BDC0468446081C96
:1004BC006146FFE71FB500F0EBF9002801D40021DD
:1004CC00C8421FBD10B500F06DF94042013010BD9F
:1004DC0010B500F0DDF9002801DB002010BD012073
:1004EC0010BDC04610B500F0D3F9002801DD002086
:1004FC0010BD012010BDC04610B500F07BF90028DE
:10050C0001DC002010BD012010BDC04610B500F06C
:10051C0071F9002801DA002010BD012010BDC04681
:10052C00002B11D1002A0FD1002900D1002802D0B4
:10053C000021C943081C07B4024802A140180290CC
:10054C0003BDC046E9FEFFFF03B4684601B502983F
:10055C0000F066F8019B9E4602B00CBC7047C0468A
:10056C00F0B5CE46474615042D0C2E0080B5070479
:10057C00140C3F0C9946030C7E435D436743634365
:10058C007F19340CE4199C46A54203D980235B02E5
:10059C009846C4444B4643435143250C36046544AA
:1005AC00360C2404A4195B19591820000CBC904675
:1005BC009946F0BD9E2110B5C905041CFFF7A6FF96
:1005CC00002803D1201C00F0A9FC10BD9E21201C8A
:1005DC00C90500F0DFFA00F0A1FC80231B069C4645
:1005EC006044F2E770B500220C4B04000D00FFF7DD
:1005FC0053FF002804D12000290002F0EBF970BD54
:10060C00064B00222000290001F080FE02F0E2F9E6
:10061C0080231B069C466044F1E7C0460000E04185
:10062C00F0B54F464646D646C0B5040082B00D0024
:10063C00914698468B422FD82CD04146484602F022
:10064C005FFB29000600200002F05AFB331A9C467F
:10065C00203B9A4600D576E04B46524693401F000D
:10066C004B46624693401E00AF4228D825D05346D5
:10067C00A41BBD41002B00DA7BE00022002300927A
:10068C000193012352469340019301236246934008
:10069C00009318E08242D0D90022002300920193EB
:1006AC000A9B002B01D01C605D600098019902B080
:1006BC001CBC90469946A246F0BDA342D7D9002255
:1006CC000023009201936346002BE9D0FB07984668
:1006DC00414672080A437B0866460EE0AB4201D1E4
:1006EC00A2420CD8A41A9D41012024196D4100216D
:1006FC00013E24184D41002E06D0AB42EED9013EEE
:10070C0024196D41002EF8D1009801995346001917
:10071C006941002B23DB2B005246D3402A00644650
:10072C00E2401C0053461500002B2DDB26005746DB
:10073C00BE40330026006746BE403200801A994105
:10074C0000900191ACE7624620239B1A4A46DA409E
:10075C006146130042468A4017001F4380E76246F9
:10076C0020239B1A2A0066469A402300F340134329
:10077C00D4E76246202300219B1A002200910192AB
:10078C000122DA40019280E72023624626009B1A60
:10079C00DE402F00B0466646B74046463B0033432A
:1007AC00C8E7C04670B542004E024C0045026D0AC7
:1007BC00120EC30F760A240EC90FFF2A0FD0FF2C7E
:1007CC0011D00120A24200D070BDB542FCD18B42A9
:1007DC000DD0002AF8D12800451EA841F4E70120CD
:1007EC00002DF1D1EBE70120002EEDD1E9E700203F
:1007FC00EAE7C04670B54A004E02450244006D0A55
:10080C00240EC30F760A120EC90FFF2C15D0FF2A27
:10081C000ED0002C15D1002A01D1002E1CD0002D99
:10082C0014D08B4227D00220013B1840013870BDF8
:10083C00002EEED002204042F9E7002DFAD1FF2A1B
:10084C000ED0002A0ED1002EEDD00BE00123013981
:10085C00994308000130EAE70020002DE7D0E2E7D9
:10086C00002EE7D18B42DED1944205DD0221581EC9
:10087C0008400138DBE70024A24204DCB542D2D8A0
:10088C000020B542D3D2581E012398430130CEE745
:10089C0030B5420044024D02C30F4800640A120EE8
:1008AC006D0A000EC90FFF2A12D0FF280CD0002AA7
:1008BC0012D1002819D1002D17D1002C2BD00220D9
:1008CC00013B1840013826E0002DF0D0022022E038
:1008DC00002CFBD1FF281FD000281FD1002D1DD1CB
:1008EC000220013B1840013815E0002C0ED08B4241
:1008FC00E5D10022904204DCAC42E0D80020AC42AE
:10090C0009D2581E01239843013004E00123013918
:10091C0099430800013030BD002DD7D18B42CED188
:10092C008242E7DD0221581E08400138F3E7C04639
:10093C00F0B54E4657464546DE46E0B543025B0AE7
:10094C00450083B00F1C99462D0EC60F002D57D0B5
:10095C00FF2D24D08020DB00C004184300238146E7
:10096C009A469B467F3D7C027A00FB0F640A120E6E
:10097C00984623D0FF2A4BD0E30080240020E404C7
:10098C007F3A1C43AD186B1C474601935346774086
:10099C003A000F2B48D87D499B00CB589F46002B23
:1009AC0000D085E008339A46063B9B467C027A00D1
:1009BC00FB0FFF25640A120E9846DBD1002C00D0E9
:1009CC0090E0524601231A4392460120DBE74C4645
:1009DC0058461700022824D0032800D1CFE000226B
:1009EC00002301284DD15802D205400AFF071043BD
:1009FC00384303B03CBC90469946A246AB46F0BD8A
:100A0C00002B5BD104239A46033B00259B46AAE7A7
:100A1C00FF35002C60D1524602231A439246022025
:100A2C00B1E7FF220023DEE74B461B0C9C464B46EE
:100A3C002604360C180461463300220C6446000C64
:100A4C0043434E435043544380191A0C1218964298
:100A5C0003D9802149028C4664441B041B0C1004EE
:100A6C00C01883015E1EB341800E1843130C1B1972
:100A7C009B0103431C00230179D5012362081C4010
:100A8C001443019A7F32002A4DDD630704D00F23F3
:100A9C002340042B00D00434230103D53C4B019A92
:100AAC001C408032FE2ABCDCA3015B0AD2B29AE75E
:100ABC000C239A46093BFF259B4654E7180002F08D
:100ACC0001F94A46431F76259A4000236D42914610
:100ADC002D1A9A469B4646E7524603231A439246E2
:100AEC00032050E7200002F0EDF8431F2D1A9C4024
:100AFC00763D002047E780230027DB03FF2272E7C7
:100B0C00424666E74C463200584662E780234A4626
:100B1C00DB031A4222D01C4220D123435B025B0A26
:100B2C004746FF225FE701239A1A1B2A21DC230088
:100B3C000199D3409E318C401A0023005C1EA341C6
:100B4C0013435A0704D00F221A40042A00D004334E
:100B5C005A0111D49B015B0A002244E780234A46C8
:100B6C00DB0313435B025B0A3700FF223BE7019573
:100B7C0087E70022002336E70122002333E7802396
:100B8C00DB0323435B025B0AFF222CE7748701081B
:100B9C00FFFFFFF7F8B54746CE464400C20F80B5BD
:100BAC0047024802400A8446664648007F0A240EE3
:100BBC00F60025009046FB00000EC90FB146FF2839
:100BCC0000D185E001267140261A914257D0002EA3
:100BDC0043DD002800D07FE04946002900D1AAE07F
:100BEC00013E002E00D0F7E05B1A5A0100D48BE0D6
:100BFC009B019C09200002F065F805388440854271
:100C0C0000DDD3E0451B230020200135EB40451BC4
:100C1C00AC40621E94412343072400251C40012252
:100C2C0041460A40002C04D00F211940042900D061
:100C3C000433590100D480E00135ECB2FF2D00D013
:100C4C00A3E0FF2400235B02E405580AD2072043EB
:100C5C0010430CBC90469946F8BD002E74D1601C14
:100C6C00C0B2012800DCA7E04A469C1A620100D5FC
:100C7C00B6E0002CBED1002200240023E3E7002EB6
:100C8C0000DC85E0002846D0FF2C49D08022484665
:100C9C00D2041043814601221B2E09DC20204C4635
:100CAC00801B84404A462000F240441EA04102436F
:100CBC009B185A0128D50135FF2D00D1A8E001223F
:100CCC00072494491A405B080B4013431C40A6E7C9
:100CDC00002E00D078E775E7FF2C54D080224946CF
:100CEC00D2041143894601221B2E09DC20214846DF
:100CFC00891B88404A460100F240481E81410A4344
:100D0C009B1A5A0100D573E7012241460A40590744
:100D1C0000D089E711E04846002858D1FF2C0CD1AF
:100D2C00DB08002B00D18CE78020C00303435B025F
:100D3C005B0AFF2487E7FF2C25D0DB08FF2DF0D0C2
:100D4C005B025B0AECB27EE7002C4DD0FF2818D07A
:100D5C008024E404724223431B2A00DDC4E01C00FF
:100D6C002025D440AA1A93405A1E934123434A4645
:100D7C000500D31A884638E7721CF8D0F243FF28D6
:100D8C00EAD10A004B46FF25D7E79B015B0A5AE7DD
:100D9C00002E41D1651CE9B2012945DDFF2D00D1A2
:100DAC004FE707244B445B081C4038E707225A4B9B
:100DBC002D1A2340144032E7002C1DD1002B7AD180
:100DCC004B46002B00D191E00A000025B5E7013E0F
:100DDC00002E19D14B446CE7FF2C84D1FF25ACE7D6
:100DEC004A468846D41A05E7002BC5D10A00FF28CD
:100DFC00C8D005004B46A0E7002B49D14B46002B31
:100E0C0077D00A00FF2598E7FF2C00D043E787E74F
:100E1C000A00FF24002316E7002C15D1002B57D114
:100E2C00FF28E6D14B467BE7002C20D1002B57D076
:100E3C004946002953D04B445A0168D50724364AF9
:100E4C001C4001251340EAE6FF28EBD08022D20497
:100E5C00764213431B2E53DC2025AD1B1A00AB40EE
:100E6C00F2405C1EA34113434B44050021E7002BC9
:100E7C00D8D04946002900D152E78021C9030F423E
:100E8C0000D14DE76046084200D049E74B4647E7A2
:100E9C004846FF25002800D14FE78022D203174295
:100EAC0004D06046104201D14B468846012241468F
:100EBC00FF250A4041E7484600281FD01A1A500166
:100ECC0020D54A460724D31A1C4088460025A6E69E
:100EDC00741CC9D0F643FF28BCD14B4620E7994679
:100EEC004B460025DB082BE7012340E700220023BB
:100EFC00A9E680230022DB03FF24A4E600251CE7DF
:100F0C000123B1E7002AF1D013000025FCE60025EF
:100F1C00FAE6C046FFFFFF7DFFFFFFFB41024200E8
:100F2C00C30F490A120E00207E2A0DD99D2A0CD817
:100F3C00802000040143952A0ADC9620821AD140B5
:100F4C004842002B00D108007047034A9818FBE771
:100F5C00963A9140F4E7C046FFFFFF7F70B5041E40
:100F6C0034D001F0AFFE9E22121A962A07DCD2B2C0
:100F7C0008282EDD083884406002400A21E0992AB6
:100F8C0009DD030021001B3399404B1E99410523B9
:100F9C001B1ADC400C43052801DD431F9C40230039
:100FAC000D490B40650709D00F252C40042C05D0AA
:100FBC0004335C0102D59F220B40121A9B01580A84
:100FCC00D2B24002D205400A104370BD002200206C
:100FDC00F7E76002400AF4E7FFFFFFFBF0B54F466E
:100FEC004646D6460C000903C0B5490A470F5E00B9
:100FFC0039431F03DB0F9C4665007B0A570F1F43C9
:10100C006D0DE40F760DA146C000B846D200AB1BA7
:10101C0064457BD0002B5FDD002E00D0A4E03E00A9
:10102C00164300D112E15E1E002E00D09EE1871AFD
:10103C004346B84280410125C91A4042091A0B02A5
:10104C0000D431E149024E0A002E00D16EE130008D
:10105C0001F038FE0300083B1F2B00DD61E120226C
:10106C003900D21A9E40D1409F400E439D4200DD74
:10107C0051E15D1B6B1C1F2B00DD7CE12021C91A8B
:10108C003D0030008F408840DD40791E8F4131009B
:10109C0007222843D940002507433A40002A09D0AB
:1010AC000F233B40042B05D03B1DBB42BF417F426D
:1010BC00C9191F000B0200D426E26A1CC64B550549
:1010CC006D0D9A4200D106E1C44AFF080A4053074D
:1010DC0052023B43120B8EE0002B00D0B8E06B1C8D
:1010EC005B055B0D012B00DC30E1871A4346B842EF
:1010FC00B641CB1A76429E1B330200D54CE13B0025
:10110C003343A1D100220024002570E0002B00DC29
:10111C00E5E0002E00D183E0AF4EB54260D08026D2
:10112C0036043743B846382B00DC3EE143461343C4
:10113C001F007A1E97413F18874280414042091890
:10114C000B0200D4B0E0A44B01359D4200D1C3E0AA
:10115C00A24A7B080A4001210F401F435108D307C4
:10116C0007221F433A4099E79B4EB54238D0802660
:10117C0036043743B846382B00DDDCE01F2B00DC8F
:10118C0030E11E004746203EF740BC46202B04D0E1
:10119C004026F31A46469E403243170063467A1E99
:1011AC0097411F43CCE0002B00D104E2434613438C
:1011BC0000D159E14B07C00818438023C9081B0311
:1011CC00194208D04546ED081D4204D14346D008CB
:1011DC00590708432900420FC9007F4D1143C00035
:1011EC004B07CA087C49C00803438D4268D01203E0
:1011FC006D05120B6D0D002112031800130B0A0D57
:10120C0012051A43764B2D0513402B435B00E40764
:10121C005B08234319001CBC90469946A246F0BDBE
:10122C003E00164312D05E1E002E00D000E187183F
:10123C008742804141444042091801250B0233D5B5
:10124C00022585E764463300414610001D00C7E7C0
:10125C00002D00D0DAE00C000443F3D05C1C00D16C
:10126C009FE15D4CA64200D12FE1DB43382B00DD22
:10127C0066E11F2B00DD83E120240500E41A0F003A
:10128C00DD40D940A0404346A7405B1A441EA04114
:10129C0098462F433843171ABA429241434652425A
:1012AC00991A64463500CAE607223A40002A00D053
:1012BC00F6E64B07CA084849FF083B438D4296D1D6
:1012CC001900114300D19EE1802109030A43120346
:1012DC00120B414D8FE71500002200238BE7002BEA
:1012EC0000D0C7E06B1C5F057F0D012F00DCF1E027
:1012FC00394DAB4200D1B9E085180A0085428941CD
:10130C004244494251180722CF076D082F43490820
:10131C003A401D00C2E607223049ED1A31403A40EE
:10132C00BCE63E002838864000279FE6380001F0D6
:10133C00C9FC20308EE6434613431F007A1E9741AA
:10134C00C71BB84280414042091A78E60E003B00A8
:10135C0006431343002D61D1002E00D0F4E0002B86
:10136C0000D11BE164463900100039E71A4FBB422B
:10137C007AD03300FFE630001F3DE840202B03D02D
:10138C004021CB1A9E4037437B1E9F4107220743C7
:10139C003A400021002589E7171A4346BA42B64164
:1013AC00591A76428E1B64464EE61F2B00DDADE0CB
:1013BC0020264746F61AB740B9461700B246DF401A
:1013CC004E463E4337005646B240561EB241174376
:1013DC004246DA408918AEE6FF070000FFFF7FFFA8
:1013EC00FFFF0F8020264746F61AB740B946170074
:1013FC00B246DF404E463E4337005646B240561E7C
:10140C00B24117434246DA40891A99E77F4CA6420B
:10141C005BD0802424045B42214327E7002E0CD1AF
:10142C00002B00D1CBE0644639001000774DD7E695
:10143C00764FBB4218D0330075E6002B14D04B0707
:10144C00C00818438023C9081B03194207D0FC08A5
:10145C001C4204D17907D0080843E14621004C46D0
:10146C00420FC9001143C000684DB9E61D000022AF
:10147C000023C0E6002D5BD10D00054300D1E2E650
:10148C005D1C00D1B0E0614DAE421FD0DB43382B68
:10149C0071DC1F2B00DD96E020250F00ED1AAF400C
:1014AC00B9460700AA46DF404D463D432F0055463E
:1014BC00A840D940451EA84188440743BF1897420D
:1014CC0092415142414435003AE66446350041466A
:1014DC00100085E60B000343002D00D063E6002BC3
:1014EC00F5D04346134300D17AE6871887428041F2
:1014FC0007224144404209183A400B0200D4D5E679
:10150C00434B01351940C9E5380069E61E004746D2
:10151C00203EF740BC46202B04D04026F31A46460A
:10152C009E403243170063467A1E97411F4302E6E2
:10153C00364DAE42CAD080252D045B422943A6E726
:10154C000843411E8841A6E6002B00D148E6871AC5
:10155C004346B842B641CB1A76429E1B33024BD55A
:10156C00171A4346BA429241591A5242891A072213
:10157C0064463A4092E501430F00791E8F419DE786
:10158C001C000F00203CE740202B03D04024E31A22
:10159C0099400843411E884138437CE600220024D0
:1015AC0025E6171A4346BA429241591A5242891AF1
:1015BC006446350043E541461000144D10E6802288
:1015CC000024120380E61D000F00203DEF40BC46B6
:1015DC00202B03D04025EB1A9940084307006346A3
:1015EC00781E87411F4369E7871897429B41414406
:1015FC005B42C9183500A3E53B003343CED007222C
:10160C0031003A4052E600231A00F4E5FF070000CF
:10161C00FFFF7FFFF0B55746DE464E464546E0B528
:10162C00834607000E03480085B092461C00360B1B
:10163C00400DCD0F002800D19DE0954B984239D03C
:10164C008023F6001B041E43924A7B0F33439946BA
:10165C00944603006344009300230026FF0002938A
:10166C0023031B0B98466300E40F52465B0D019459
:10167C0000D1B3E086498B4200D19EE04246D100B6
:10168C00802212040A435146490F11438B4681496B
:10169C0052468C4600996344CB1A0021D200009329
:1016AC002B0063409A460F2E00D905E17A4BB60009
:1016BC009B599F465B463343994600D0B8E00223C2
:1016CC000826002700900293CAE7CB463A000299FD
:1016DC000195019B9A46022927D0032900D180E26B
:1016EC00012944D06D49009B8C4663441C00002C9E
:1016FC0038DD530700D013E2D2085B46DB0109D575
:10170C005946674B19408B468021C9008C46009B7B
:10171C0063441C00634B9C4207DC5B4664055F071B
:10172C005B0217431B0B620D02E000230027584A93
:10173C0000211B031C0B0B0D1B05234314055A4ADC
:10174C00380013401C4353466400DB0764081C43F9
:10175C00210005B03CBC90469946A246AB46F0BD74
:10176C000122524201231B1B382B00DCADE100226D
:10177C0000230027DCE75B46334399465ED0002EFE
:10178C0000D18AE1300001F09DFA03000B3B1C2BC9
:10179C0000DD7BE11D22D31A5A460100DA400839DC
:1017AC008E4013005F46334399468F403F4B0026D3
:1017BC001B1A00930023029352E7414653460B43F6
:1017CC003B499B468C46009B634400935B46002B35
:1017DC003BD1022300221E43022161E743461343FF
:1017EC009B4637D04346002B00D162E1404601F0C6
:1017FC0069FA03000B3B1C2B00DD53E10200414650
:10180C00083A914088461D21CB1A5146D9400B000D
:10181C0041460B439B46534693401A00009B254977
:10182C009C46604403008C4663440093002137E7D8
:10183C000323B14600900C26029311E7002300937A
:10184C0001330426002702930AE70323C3461E43F1
:10185C00032125E701331E430022012120E7002349
:10186C009A46802300271B03094A61E780234946D7
:10187C001B03194200D1E2E05946194200D0DEE0C8
:10188C000B431B0317001B0BA246014A50E7C04633
:10189C00FF07000001FCFFFFB4870108FF030000F5
:1018AC00FFFFFFFEFE070000FFFF0F800DFCFFFF98
:1018BC0001F8FFFFF3030000D94500D9CBE000D1BC
:1018CC00C6E03C0048460027009B013B00935B466A
:1018DC00160E1B021E431302984633041B0C99462A
:1018EC00310C0191FEF7B4FC4A4642430B04210C27
:1018FC00050019438A4207D98919013D8E4203D844
:10190C008A4201D9851E8919881A0199FEF7A0FC13
:10191C0009048C464A46210464464243090C0300E0
:10192C0021438A4204D98919013B8E4200D8F1E047
:10193C002D041D43AB464346891A4246280C12041B
:10194C001D0C5B46140C22001B041B0C5A43039405
:10195C006B434443029568431B19150CEB189C42CE
:10196C0003D980246402A44660441C0C15041B0497
:10197C002D0C20185D19814277D373D00C1AA24A12
:10198C007D1BAF42BF419446009B7F426344E01BEA
:10199C001C00864200D1DBE00199FEF759FC4A4657
:1019AC0042430B04290C070019438A4207D98919B1
:1019BC00013F8E4203D88A4201D9871E8919881AA1
:1019CC000199FEF745FC09044A46894629044D460F
:1019DC004243090C030029438A4207D98919013B68
:1019EC008E4203D88A4201D9831E89193F04891A71
:1019FC003A00039F1A43380013041B0C58438146CA
:101A0C000298150C6F43434345434846000C8446EB
:101A1C00DB1963449F4203D980204002844665440D
:101A2C0048461F0C00041B04000C7D191818A94211
:101A3C0000D284E000D17FE001231A4357E68023D3
:101A4C004A461B0313431B031B0BAA466F4A6FE644
:101A5C00BA4200D935E74B46DC0758087B081C43D3
:101A6C00FF0734E70024AF4289D247444745A441DD
:101A7C005B466442A4196418013BA6421ED2A042E4
:101A8C006DD800D1B6E0241A9B4678E703005A467D
:101A9C00283B9A400027914688E6584601F012F9F7
:101AAC00203072E603005246283B9A4093460022AF
:101ABC00B4E6504601F006F920309AE6A642E2D18F
:101ACC00B845DCD9341A9B4659E71F2B65DC504CC2
:101ADC000099A4465C46614408008C401100824089
:101AEC00D940501E82410C4314435A46DA4013002D
:101AFC00620709D00F222240042A05D02200141DAF
:101B0C009442894149425B181A0262D50122002392
:101B1C0000270DE68A4200D80AE7831E891907E7D9
:101B2C000F231340042B00D1E6E5171D9742924179
:101B3C0053429B44FA08E0E5002800D1D7E5711820
:101B4C00531EB14227D3A94215D358D01A0073E7BC
:101B5C00002B00DC04E6012300229B44CDE502238C
:101B6C004744474589415B429C46494289190C19B7
:101B7C00E344241A03E743465F0047459B41B846BC
:101B8C005B429E19023A8919A94200D054E740459C
:101B9C0000D051E7ABE51A00F6E71F215F4649423A
:101BAC000C1BE740202B07D01A49009B8C46634442
:101BBC0018005B4683401A43501E82413A43072764
:101BCC000023174009D00F210023114014000429D1
:101BDC0095D122005F075B021B0BD2081743002232
:101BEC00A6E5802359461B030B431B0317001B0B55
:101BFC00064A9DE5BD42B2D89B460024BFE680450F
:101C0C00B9D31A00C3E7C046FF030000FF0700006A
:101C1C001E0400003E040000F0B54F464646D64672
:101C2C008446C0B58046194E18030F034D00000BB7
:101C3C005C0082463F0B6D0DC90F9146640DDB0FA6
:101C4C000120B5420AD0B44203D0A54201D1574578
:101C5C000CD01CBC90469946A246F0BD66463E434D
:101C6C00F7D1AC42F5D154461443F2D10120C8450A
:101C7C00EFD1994207D0002DEBD163461F433800BA
:101C8C00471EB841E5E70020E3E7C046FF07000028
:101C9C00F0B54F464646D6464D00C0B50E03C90FAB
:101CAC008A462C491F035C008046360B6D0D91460D
:101CBC003F0B640DDB0F8D421ED08C4216D0002DD5
:101CCC001ED130438446002C01D13A4323D06246C6
:101CDC00002A1AD09A4529D05146022001390840D1
:101CEC0001381CBC90469946A246F0BD3900114300
:101CFC00E5D002204042F4E73043FAD1AC420FD099
:101D0C00002C0FD13A43E7D00CE00122013B934366
:101D1C0018000130E5E763460020002BE1D0DBE73B
:101D2C003A43E6D19A45D7D1A542D5DCA54205DB8D
:101D3C00BE42D1D808D00020BE42D2D25046012398
:101D4C00013898430130CCE7C845C5D80020C845B8
:101D5C00F4D3C6E7FF070000F0B54F464646D6461B
:101D6C004D00C0B50E03C90F8A462E491F035C00F7
:101D7C008046360B6D0D91463F0B640DDB0F8D428B
:101D8C0018D08C4211D0002D18D130438446002C31
:101D9C001ED13A431CD163460020002B30D0514653
:101DAC0002200139084001382AE039001143EAD0F9
:101DBC00022025E03043FBD1AC4226D0002C26D1AA
:101DCC003A4324D15146022001390840013817E02A
:101DDC006246002A0FD09A45E1D1A54205DBBE42EE
:101DEC00DDD819D00020BE420AD25046012301385A
:101DFC009843013004E00122013B93431800013069
:101E0C001CBC90469946A246F0BD3A43D0D19A45A7
:101E1C00C5D1A542C3DCE0E7C845C0D80020C84501
:101E2C00E3D3EDE7FF070000F0B55746DE464E461C
:101E3C004546E0B5834606000F03480087B092463E
:101E4C001D003F0B400DCC0F002800D16FE0DE4B86
:101E5C00984238D08023FF001B041F43730F3B4371
:101E6C000193DA4B0027994600239B46F6008144E8
:101E7C002B0369001B0B52469846490DED0F0029A8
:101E8C0000D185E0D04B994200D173E04346DA0093
:101E9C0080231B0413435246CC48520F84461343F1
:101EAC00524600206144D2008944210069400091CF
:101EBC008C46012149448A460F2F00D990E0C44931
:101ECC00BF00CF59BF465B463B43019300D06AE14C
:101EDC0002230827002681469B46C9E73200584654
:101EEC00019B61460091022800D175E0032800D1C6
:101EFC00FEE1012800D02CE100230027002600255C
:101F0C003F032A0D3F0BB34812053A4302401B0511
:101F1C001343009A5B00D1075B080B433000190098
:101F2C0007B03CBC90469946A246AB46F0BD5B461A
:101F3C003B43019300D12FE1002F00D1A5E13800E4
:101F4C0000F0C0FE03000B3B1C2B00DD96E11D22B4
:101F5C00D31A5A460100DA405E4608398F40130006
:101F6C008E403B4301939C4B00271B1A9946002340
:101F7C009B467DE7414653460B4393498C46E144CF
:101F8C00002B00D01AE102220220174300228CE71A
:101F9C00134300D10DE14346002B00D181E14046B3
:101FAC0000F090FE02000B3A1C2A00DD72E10100E9
:101FBC00434608398B4098461D239A1A5346D34002
:101FCC001A004346134352468A404946081A82492E
:101FDC0089468144002068E77B4B002700268EE76A
:101FEC00140C1204120C1100370C3604350C794306
:101FFC0028008C462E0060436044834656432100E3
:10200C00300C80465846794340440291844506D9A9
:10201C008846802149028C46E044414602913604B0
:10202C00010C360C00048B4681191E0C1B041B0C76
:10203C000391190079438C46280075436544A846E2
:10204C005843050C45447743A94203D980214902E2
:10205C008C466744290C8C4639000004000C2D0476
:10206C002D186144AB4405915946049101990F0414
:10207C003F0C080C390051434243904602008C46F9
:10208C00090C8B4662437C4344445C44A04503D911
:10209C008021490288464244210C88466146090445
:1020AC00090C8C4639005943434370437E430F0C53
:1020BC00F6182404BE19644442448C46B34203D936
:1020CC0080235B0298464044029B61469846049BE1
:1020DC00370443449B46AB45AD416B420D04059917
:1020EC002D0C8C467F196744FD18A8465D462D19AA
:1020FC00A542A44193466442A446C344DC448F42A7
:10210C00BF4198459B4193459241A445A4415B42F4
:10211C007F421F43360C52426442BF192243BF1800
:10212C00624638184302D20D039913436A020A43DC
:10213C00501E82416146ED0D2A434E023243D901B5
:10214C0000D4B3E00126500832400243DE0732438C
:10215C005B08224C5444002C62DD510709D00F203F
:10216C001040042805D0101D9042924152429B18F9
:10217C000200D90104D580241948E40003405444DA
:10218C001848844200DD27E75E075B02D2081F0B6C
:10219C00630516435B0DB2E6002399460133042711
:1021AC0000269B4664E60323019781460C279B4639
:1021BC005EE6012201201743002276E6032303206A
:1021CC001F43434671E6C046FF07000001FCFFFFBA
:1021DC00F4870108FFFF0F800DFCFFFFFF030000D9
:1021EC00FFFFFFFEFE0700000023802700933F0344
:1021FC000026434B83E6019B3200A446584670E60A
:10220C00AC466EE6802701993F0339422DD03B4204
:10221C002BD11F433F033F0B00951600384B6EE646
:10222C0001252D1B382D00DD66E61F2D40DC3548C1
:10223C001C005044160082408440EE40501E8241E7
:10224C0034431443EB40620709D00F222240042A86
:10225C0005D02200141D9442804140421B181A02E2
:10226C003ED501230027002649E68027019B3F032A
:10227C001F433F033F0B0094214B40E603005A469B
:10228C00283B9A40002601926DE6584600F01AFD54
:10229C00203057E603005246283B9A401300002298
:1022AC0093E6504600F00EFD20307BE6CA4650E720
:1022BC001F201E004042041BE640202D03D0124C70
:1022CC005444A3401A43501E824132430726002730
:1022DC00164009D00F200023104014000428B9D157
:1022EC0022005E075B021F0BD2081643002306E692
:1022FC0080273F031F433F033F0B1600004BFEE5B7
:10230C00FF0700001E0400003E040000F8B557460D
:10231C004E464546DE460C000903E0B5490A460F19
:10232C005F0031431E03DB0F760A9B46530F33438A
:10233C00C84E6500C000E40FD2006D0DA246814668
:10234C007F0D9C469046B74200D1B9E05B46012612
:10235C0073409B46EE1BA34500D183E0002E63DD4A
:10236C00002F00D0B1E06346134300D123E1731E6C
:10237C00002B00D0BAE1861A6346B0428041012599
:10238C00C91A4042091A0B0200D447E149024B0A10
:10239C0098464346002B00D189E1404600F092FC60
:1023AC000300083B1F2B00DD7CE120223000D21AF9
:1023BC004146D040994002009E400A439D4200DDB8
:1023CC006AE15D1B6B1C1F2B00DD94E120211000CA
:1023DC003500C91A8E40DA408840DD40711E8E41AE
:1023EC00110007222843002506433240002A09D059
:1023FC000F233340042B05D0331DB342B641764234
:10240C0089191E000B0200D43DE26A1C914B550544
:10241C006D0D9A4200D119E18F4AF6080A40570710
:10242C0052023743120B9BE0002E00D0C5E06E1C0D
:10243C007605760D012E00DC48E16746861ACB1B2B
:10244C00B042BF417F42B8461F004346FF1A3B00D3
:10245C00B8461B0200D55FE137439AD10022002415
:10246C00002579E0002E00DCFAE0002F00D18DE091
:10247C00784B9D4267D0802367461B041F43BC46A4
:10248C00382E00DC52E1634613435A1E93411E184A
:10249C0086428041404209180B0200D4BEE06D4BCD
:1024AC0001359D4200D1D2E06B4A73080A400121EC
:1024BC000E401E435108D30707221E43324095E7B6
:1024CC001E00164300D045E740E7624B9D423AD0D0
:1024DC00802367461B041F43BC46382E00DDEBE00F
:1024EC001F2E00DC3AE133006746203BDF403B0007
:1024FC00202E05D04027BF1B6646BE403243904677
:10250C004646721E96413343DAE0002B00D114E2AA
:10251C006346134300D168E180234E07C008C90805
:10252C001B030643194208D06046C008184204D168
:10253C0063460100D2085E071643F3009946C900B2
:10254C00720F444D11434B46DE08424B4F07374345
:10255C00CA089D4200D16EE012036D05120B6D0D81
:10256C0000211203130B0A0D12051A433B4B2D05C8
:10257C0013402B435B00E4075B082343380019002E
:10258C003CBC90469946A246AB46F8BD6346134305
:10259C0011D0731E002B00D007E1861886428041B3
:1025AC0061444042091801250B0237D502257BE70F
:1025BC003E00614691463500C5E75C46002D00D0D3
:1025CC00E1E00B000343F3D0731C00D1ACE1214BD1
:1025DC009F4200D13AE1F343382B00DD6FE11F2B12
:1025EC0000DD8CE120250E00ED1AAE40B046060051
:1025FC00AA46DE40454635432E005546D940A840F4
:10260C006346451EA8415B1A9C463043161AB242DB
:10261C00924163465242991A3D00B4E60722324079
:10262C00002A00D0E4E60B4BF6084F073743CA08E4
:10263C009D4200D090E73B00134300D1A6E18023DC
:10264C001B031A431203120B024D89E715000022DB
:10265C00002785E7FF070000FFFF7FFFFFFF0F80CC
:10266C00002E00D0C7E06B1C5E05760D012E00DC41
:10267C00F0E0C84DAB4200D1B9E085180A008542A4
:10268C0089416244494251180722CE076D082E43F6
:10269C00490832401D00A9E6BF49ED1A1140072236
:1026AC003240A3E6320028388240002686E630000D
:1026BC0000F008FB203073E6634613435A1E934127
:1026CC00C61AB04280414042091A5CE60E006746C9
:1026DC0006431743002D5ED1002E00D0F3E0002FEF
:1026EC0000D11EE15C46614691462CE7A94FBE42E3
:1026FC007BD01E00F1E610001F3DE840202B03D0DC
:10270C004021CB1A9A401643731E9E410722064362
:10271C0032400021002583E7161A6346B2428041FD
:10272C00591A40420B1A98465C4632E61F2E00DDC1
:10273C00ABE02027BB1B9A4663465746BB409946E5
:10274C0013004F46F3401F433B005746BA40571EF9
:10275C00BA4113436246F240891898E62027BB1B06
:10276C009A4663465746BB40994613004F46F34082
:10277C001F433B005746BA40571EBA4113436246AB
:10278C00F240891A9CE7834B9F425FD080252D0431
:10279C007342294320E7002E0CD1002F00D1D0E04A
:1027AC005C46614691467B4DCDE67A4FBE421CD0CD
:1027BC001E0065E6002F18D0C0084E070643802087
:1027CC00C9080003014208D06346DC08044204D166
:1027DC002100DA46D2085E071643F300994601241D
:1027EC005346C900720F11431C406A4DABE61D00E5
:1027FC0000220027B4E6002D59D10B00034300D171
:10280C00D6E6731C00D1B2E0624B9F421ED0F3435C
:10281C00382B6FDC1F2B00DD97E020250E00ED1A06
:10282C00AE40B0460600AA46DE40454635432E0073
:10283C005546A840D940451EA8418C440643B618BD
:10284C0096429241514261443D0025E63D0061466D
:10285C00914678E60B000343002D00D055E6002B83
:10286C00F5D06346134300D16DE68618864280414D
:10287C0061444042091800220B0200D4D0E6464BBA
:10288C0001351940B2E5B1465DE633006746203BA1
:10289C00DF403B00202E05D04027BF1B6646BE40C4
:1028AC00324390464646721E96413343EFE5394B10
:1028BC009F42CBD080252D0473422943A8E70843BF
:1028CC00411E8841A2E6002F00D13CE66346861AE1
:1028DC00CF1AB0429B415B42FB1A98461B024ED565
:1028EC00161A6346B2429241591A5242891A5C46F0
:1028FC0000227BE501430E00711E8E419FE71D00F7
:10290C000E00203DEE40B046202B04D04025EB1AA3
:10291C0099400843814648464346411E8841184326
:10292C0074E60022002417E6161A6346B24292415E
:10293C00591A5242891A3D0025E561469146154DBA
:10294C0001E680220024120379E61D000E00203DD2
:10295C00EE40B046202B04D04025EB1A994008439A
:10296C0081464E464346711E8E411E4367E78618CC
:10297C0096429B4161445B42C9183D008CE5474639
:10298C003743CED007224146324049E600273A0071
:10299C00E6E5C046FF070000FFFF7FFF70B50C4E59
:1029AC000D031C0349005B002D0B490D240B5B0D23
:1029BC00B14208D0064900208B4203D114432000B9
:1029CC00441EA04170BD05430120002DFAD1F1E752
:1029DC00FF07000030B5144D0A034B00120B5B0DC2
:1029EC00C90F0024AB4211DD104CA34210DC802433
:1029FC00640322430E4CE41A1F2C0CDD0D48C31A41
:102A0C00DA4013005C42002900D11C00200030BDCC
:102A1C00094BCC18FAE7094DE040AC4663449A40A8
:102A2C0013000343EEE7C046FE0300001D04000044
:102A3C003304000013040000FFFFFF7FEDFBFFFFDA
:102A4C0070B500282DD0C317C5185D40C40F2800E1
:102A5C0000F038F9154B1B1A5B055B0D0A2815DDC8
:102A6C000B38854000222D032D0B002110002D0367
:102A7C000A0D2D0B12052A430D4D1B052A4013433D
:102A8C005B00E4075B082343190070BD02002900BA
:102A9C00153291400A000B21081AC5402D032D0B4D
:102AAC00E3E70024002300250022DEE71E040000DB
:102ABC00FFFF0F8010B5041E25D000F003F9144B56
:102ACC001B1A5B055B0D0A2812DD0B3884400022B3
:102ADC002403240B0021100024030A0D240B1205DF
:102AEC0022430C4C1B05224013435B00590810BDBC
:102AFC0002002100153291400A000B21081AC44033
:102B0C002403240BE6E7002300240022E2E7C0465E
:102B1C001E040000FFFF0F804100090E4B1C70B516
:102B2C00DBB24602750AC40F012B14DDE0239B00B7
:102B3C006D07360BCB1800210A0D280012051C4D11
:102B4C0032435B052A405B0813435B00E4075B08D8
:102B5C002343190070BD002914D1002D1ED028006C
:102B6C0000F0B0F80A281CDC0B232A001B1ADA40F0
:102B7C00030015339D400F4B12031B1A5B05160BFC
:102B8C005B0DD8E7002D06D0320B802636036D077F
:102B9C001643094BCFE7084B0026CCE70023002651
:102BAC00C9E703002A000B3B9A400025E3E7C04627
:102BBC00FFFF0F8089030000FF070000F0B54C00F9
:102BCC00640D0B03621C5B0A460F5205C90F1E43B2
:102BDC00C500520D012A29DD374BE718FE2F1CDCEE
:102BEC00002F3BDD8001431E98410722F3006D0F3F
:102BFC0003432B431A40002A04D00F221A40042A04
:102C0C0000D004338022D2041A4024D00137FAB207
:102C1C00FF2F02D09B01580A01E0FF220020400246
:102C2C00D205400AC90710430843F0BD3543002CB8
:102C3C0004D1002D0AD100220020F0E7002DECD0A9
:102C4C008020C0033043FF22E9E7002400235B020D
:102C5C00580AE2B2E3E7DB083C00F8E73B00173325
:102C6C00F3DB80231B0433431E26F61B1F2E14DDBF
:102C7C0002225242D71B1A00FA401700202E04D011
:102C8C000E4A94466444A3401D432B005D1EAB4189
:102C9C0007223B431A400027ADE7094A2800A21837
:102CAC00954093406C1EA541F04007222B430343F3
:102CBC001A4000279FE7C04680FCFFFFA2FCFFFFE5
:102CCC0082FCFFFF1C2101231B04984201D3000C42
:102CDC0010391B0A984201D3000A08391B09984283
:102CEC0001D30009043902A2105C40187047C04699
:102CFC0004030202010101010000000000000000B9
:102D0C0010B5002903D1FFF7DDFF203002E0081CCD
:102D1C00FFF7D8FF10BDC046F0B583B00F0016000A
:102D2C001C0001900BF06EF9012500281CD0019BB2
:102D3C009B00114A985821000BF02CFB002813D152
:102D4C00002E17D0002401980BF05CF901223900F9
:102D5C0010F0FEF80500013702200DF04DFA013499
:102D6C00E4B2A3B2B342EED30A200DF045FA280028
:102D7C0003B0F0BD0125F7E7906A0020F0B583B0F1
:102D8C00234B1B889BB2234A934233D01A0A39D067
:102D9C0021490A70214A13701F4B1E78002E35D022
:102DAC00012402226B46D91D00239C461C4D634610
:102DBC000B700B78DBB20A2B15D8631E9800C01869
:102DCC004000C018124BD7180B783F881B185B00BB
:102DDC00EF52023292B20B780133DBB20B700B78EC
:102DEC00DBB20A2BEED90134E4B2B442DFD90020B5
:102DFC0003B0F0BD084B01221A70084B00221A7068
:102E0C00FA20F5E7044A01211170C3E70020EFE72F
:102E1C0000D80108FFFF000044000020921700209A
:102E2C0094110020F8B50F4B1B780025002B17D000
:102E3C000D49022008F058FE01240025094F0A4EC6
:102E4C000134E4B23B78A3420AD3611E49008919CC
:102E5C00601C08F049FEA31C1B2BF1DD0A25EFE7D3
:102E6C002800F8BD44000020506F0020F0B5DE466D
:102E7C0057464E464546E0B583B06B460022DA8095
:102E8C001C240027184B9A469B460CE04B469B0093
:102E9C004B445B005B4400225A720137FFB2134B68
:102EAC001B78BB4217D3BD00ED196D005544631D53
:102EBC009BB298466B469E1DB9463100200008F027
:102ECC0013FE33886B701B0A2B700134A4B20235CD
:102EDC00A045F2D1DAE7002003B03CBC90469946FD
:102EEC00A246AB46F0BDC04684160020440000202C
:102EFC00F0B5D6464F464646C0B582B06B4600226A
:102F0C00DA80224B1B78002B1DD00025204E1F4C45
:102F1C00E9B2490071182800CB3080B208F0E4FD0A
:102F2C000135ADB22278EBB29A42F1D8194B9946E1
:102F3C002C009934A4B2CB35ABB298466B469E1D8F
:102F4C0000239A4609E00025F0E74B4652465A7298
:102F5C000A239C46E144444510D0671DBFB24D4640
:102F6C003100200008F0C0FD33886B701B0A2B70F9
:102F7C000134A4B20235BC42F2D1E6E7002002B023
:102F8C001CBC90469946A246F0BDC04644000020A9
:102F9C00DC1500207815002070B584B00E21694432
:102FAC0000230B8003AA1380E42008F09DFD00266B
:102FBC00002802D10E236B441E780E216944E520B3
:102FCC0008F092FD040003A9E62008F08DFD0443EF
:102FDC00A4B20025002C06D10E236B441D882D04B1
:102FEC0003AB1B88ED180E216944E72008F07CFD2B
:102FFC00040003A9E82008F077FD204380B20024E8
:10300C00002806D10E236B441C88240403AB1B88B8
:10301C00E4180E216944E92008F066FD002807D168
:10302C000E236B441B88190A284A1170284A137006
:10303C000E216944EA2008F057FD002807D10E2321
:10304C006B441B88190A234A1170234A13700E21F2
:10305C006944EB2008F048FD002807D10E236B448F
:10306C001B88190A1D4A11701D4A1370174B1B78C7
:10307C00002B03D0164A1278002A12D1154B1B785C
:10308C00002B03D0144A1278002A11D1134B1B7851
:10309C00002B03D0124A1278002A10D1002004B061
:1030AC0070BD009222002900300004F0BBFCE5E763
:1030BC00009222002900300004F0B4FCE6E70092F4
:1030CC0022002900300004F0ADFCE7E76A1800206C
:1030DC00751500206B180020761500206C18002048
:1030EC007715002010B582B08A206B46991D4000E0
:1030FC0008F0FAFC002800D075E06B4606331B88FC
:10310C00554A13701B0A53708E206B46991D400054
:10311C0008F0EAFC002800D06CE06B4606331B88F4
:10312C004D4AD90B11715B08D38016206B46991D43
:10313C00FF3008F0D9FC002863D16B46DA88474B86
:10314C001A808B206B46991D400008F0CDFC00289E
:10315C005CD16B46DA88414B5A8018206B46991D1E
:10316C00FF3008F0C1FC002855D16B4606331B8894
:10317C003A4A13711B0A53718C206B46991D4000FF
:10318C0008F0B2FC04001A2001A9FF3008F0ACFCD6
:10319C000443A4B2002C45D101AB1B881B046A4626
:1031AC000632128813432D4A93608D206B46991D6D
:1031BC00400008F099FC002842D16B4606331B886E
:1031CC00264A13731B0A53731C206B46991DFF3040
:1031DC0008F08AFC002839D0214B9A7E1F4B9A7636
:1031EC00002002B010BD1C4B1E4A11781970527889
:1031FC005A7089E7184B1B4A11791971D288DA80F9
:10320C0093E7174B1A88154B1A809AE7144B5A8878
:10321C00124B5A80A1E7114B114A1179197152794D
:10322C005A71A9E7104B1B78002B04D00B4BE122F1
:10323C0052029A60B9E70A4B9A68084B9A60B4E755
:10324C00064B18225A7300221A73BDE76B46DA88B4
:10325C00024B9A76C4E7C0468C6900200C6A0020A9
:10326C002800002020000020E80A0020F0B5CE46FF
:10327C00474680B589B01E236B4400221A80012575
:10328C00EC241E000F23984604E00434A4B201354C
:10329C00082D58D03100200008F026FC0028F4D16D
:1032AC0031880B0A1A09AA42EFD140460340ECD0F0
:1032BC00D00082182748814691444A4653701172B7
:1032CC00AF00BFB23800E93080B2310008F00CFC1E
:1032DC0033881A0A49468A704B713800EA3080B23A
:1032EC00310008F001FC33881A0A4946CA708B7108
:1032FC00EB37B8B2310008F0F7FB33881A0A4946AD
:10330C000A71CB71EFB24878390009F073F94B466A
:10331C00197A9B784A100120024001400020059048
:10332C004846C079049048468079039048464079D5
:10333C0002904846007901904846C07800903800C9
:10334C0009F072FAA1E7002009B00CBC904699462E
:10335C00F0BDC04670250020F0B5DE4657464E46FF
:10336C00C0B582B0322010F063FB071E00D171E0B3
:10337C00394B1B78FF20FE2B66D1384E9A3B9B466F
:10338C00B344354D7B1C0193354B994623E0002407
:10339C003B19013B1B78002B01D00134E4B2200017
:1033AC0010F046FB5346D86000283FD0220039006D
:1033BC0010F08BFD4B461B7801334A4613702200EC
:1033CC000021380010F08AFD009B1B78FE2B37D1B2
:1033DC0014365E4534D0280014302B00791B1A7833
:1033EC00CA5401338342FAD11435B24614220199DE
:1033FC00300010F06AFD14220021380010F06EFD30
:10340C0000952A78931CDBB2012BC0D9390000241B
:10341C000A7001350134E4B200952A78931CDBB2B2
:10342C00012BB5D90131322CF2D1B1E71422002194
:10343C00504610F053FD380010F004FB0E2003E052
:10344C00380010F0FFFA002002B01CBC91469A46DE
:10345C00A346F0BDFB20F7E700DC0108286A00203A
:10346C003F19002010B5FFF789FCFFF7DBFCFFF7D5
:10347C00FDFCFFF73DFDFFF78FFDFFF733FEFFF778
:10348C00F5FEFFF769FF10BDF0B583B0114B1B784B
:10349C00002B1AD00124002301930F4E0D4F08E08E
:1034AC00601C08F051FB0AE00134E4B23B78A34203
:1034BC000DD32500631E5B00995B0029F0D102350A
:1034CC001B2DF1DD0A230193EEE7002301930198F4
:1034DC0003B0F0BD44000020506F0020F0B5D6467C
:1034EC004F464646C0B50026002398461A4B9A46CE
:1034FC001A4B994605E00136F6B24B461B78B3429F
:10350C0024D3B3009B195B0052469B5C002BF2D07A
:10351C00B500AD196D00104B9C46654444461C34F7
:10352C00A4B247462137BFB22B781B026978C91861
:10353C0089B2200008F008FB02350134A4B2BC4269
:10354C00F2D1434605339BB29846D4E700201CBC0D
:10355C0090469946A246F0BD8416002044000020F7
:10356C00F8B5DE4657464E464546E0B50F00160008
:10357C0099460AAB1B789B460BAB1D780CAB1B78A2
:10358C009A460DAB1C780EAB1B78984681B2E420A2
:10359C0008F0DAFA390A89B2E52008F0D5FAB9B29E
:1035AC00E62008F0D1FA310A89B2E72008F0CCFA0B
:1035BC00B1B2E82008F0C8FA4B461902594489B256
:1035CC00E92008F0C1FA2D025544A9B2EA2008F00E
:1035DC00BBFA24024444A1B2EB2008F0B5FA002057
:1035EC003CBC90469946A246AB46F8BD10B51F4C64
:1035FC0063785B01217819438A20400008F0A4FA13
:10360C002179C903E388194389B28E20400008F060
:10361C009BFA174C21881620FF3008F095FA618828
:10362C008B20400008F090FA63791B02217B194330
:10363C001820FF3008F088FA21898C20400008F00F
:10364C0083FA61891A20FF3008F07EFA637B1B0233
:10365C00217919438D20400008F076FAA17E1C20B8
:10366C00FF3008F071FA002010BDC0468C690020B4
:10367C000C6A0020F0B583B034220021134810F0FE
:10368C002DFC134B1B78002B1AD001240023019323
:10369C000E4E0F4F08E0601C08F056FA0AE0013499
:1036AC00E4B23B78A3420DD32500631E5B00995B0B
:1036BC000029F0D102351B2DF1DD0A230193EEE731
:1036CC0000230193019803B0F0BDC046506F002059
:1036DC004400002010B5064B064A12689A4206D0E8
:1036EC0008F0DAFA002802D1024B014A1A6010BD28
:1036FC00ADDEEFBEF07F002070B58EB012256D44AC
:10370C0004AB009307AB2A0008A9012008F07EFD4A
:10371C0003AC009405AB0E226A4406A9022008F003
:10372C0075FD01230A9300260B962B88099309A992
:10373C0008980EF009F80A9602230B932388099334
:10374C0009A905980EF000F82988002208980EF0B7
:10375C006FF905200AF07CFA218805980EF062F9C1
:10376C000023002802D018000EB070BD12336B4439
:10377C001988012208980EF05BF905200AF068FA06
:10378C0003AB198805980EF04DF9013843424341BB
:10379C00DBB2E8E770B50600084D0024A9683000DC
:1037AC00FCF7AAFC002806D00134E4B20C35072C37
:1037BC00F4D1002070BD0134E0B2FBE7AC00002076
:1037CC0070B504001B49FCF797FC06000625002E7B
:1037DC0023D019492000FCF78FFC00281FD0174973
:1037EC002000FCF789FC00281BD015492000FCF7B1
:1037FC0083FC002817D013492000FCF77DFC00281F
:10380C0013D011492000FCF777FC00280FD0013DA4
:10381C00EDB2002DDBD1002070BD0120FCE70220B1
:10382C00FAE70320F8E70420F6E70520F4E7062082
:10383C00F2E7C046A08A0108A48A0108A88A0108F8
:10384C00AC8A0108B08A0108B48A010870B50AF084
:10385C00B7F80AF055F908F083FA08F075FC07F090
:10386C0017FB0AF081F908F05DF80AF0AFF908F0DF
:10387C0039FD00281AD1FFF73FFF002821D0344B27
:10388C0001221A7032200AF0E3F906F013FC314BD6
:10389C00E12252029A6001241D00A96820000AF05E
:1038AC001DFC0134E4B2072CF7D10FE0FFF712FF37
:1038BC00BFF34F8F284B294ADA60BFF34F8FC046B6
:1038CC00FDE732200AF0C4F906F0F4FBFFF7CAFD5D
:1038DC000AF096FC07F082FF214B1B78002B25D0B9
:1038EC009024E4050122802120000EF0A1F8FA209A
:1038FC0040000AF0ADF90022802120000EF098F86B
:10390C0064200AF0A5F90122802120000EF090F825
:10391C0064200AF09DF90022802120000EF088F826
:10392C0003F0FAFC0F4B01221A7070BD9024E405D1
:10393C000122802120000EF07BF8FA2040000AF0D2
:10394C0087F90022802120000EF072F8E8E7C046CB
:10395C00E80A00200C6A002000ED00E00400FA05E3
:10396C0092170020E70A002010B50CF027FC06F097
:10397C006DFAFFF76BFF03F0EFFC0AF0E7FC10BDEC
:10398C00F0B5C64600B582B0060001240F4B984630
:10399C000F4D0327A6420FD043461B881A0A2A70E4
:1039AC006B70AC7000970A2300220021200004F0F9
:1039BC005BF90A200AF0CFFC0134E4B2072CE9D100
:1039CC00002002B004BC9046F0BDC0467800002038
:1039DC0054160020F0B5DE4657464E464546E0B537
:1039EC0085B000AF474B1B789C460733DB08DB00E8
:1039FC006A46D31A9D466C466346002B0DD02300B5
:103A0C00414A61464D1EEDB201352D190021197048
:103A1C00118001330232AB42F9D101380123235416
:103A2C00162242430232394BD2180021364D400047
:103A3C0001239846A34603E001310232062911D036
:103A4C001388002BF8D0465BB14646468E40B246F2
:103A5C004E46544626434653DB085B44013B022446
:103A6C001C70E9E75C460226284B02337B6001237D
:103A7C009B46B046260043460133DBB2984663466C
:103A8C00002B35D000220023FB60013B43449946B8
:103A9C001EE001300231062815D00B88002BF8D01F
:103AAC00DB08013BF55C002DF3D1174AA55A5A46A9
:103ABC0082401543144AA5524246F254FB68013326
:103ACC00DBB2FB60E5E7BA680132D3B263450CD2D6
:103ADC00B35C4B45F8D1162151437B689A4651444F
:103AEC0053000020BA601C00D7E7FB68002BC2D142
:103AFC000020BD4605B03CBC90469946A246AB465C
:103B0C00F0BDC04644000020D413002094110020C6
:103B1C00F0B50B78FF24002B00D104780A4B1D78EC
:103B2C00002D0EDD0023002702E00133AB4209DA41
:103B3C00C25CA242F9D2CE5C002EF6D1DFB21400E8
:103B4C00F3E700273800F0BD44000020074B19783C
:103B5C00002908D00300411801201A7810400133C5
:103B6C008B42FAD170470120FCE7C046440000208C
:103B7C00F0B5DE4657464E464546E0B58FB00500DB
:103B8C008A463222002101A810F0A8F91A2200213D
:103B9C005A4810F0A3F92900681E0023584A135400
:103BAC00584A1354162545430235574BED182A0035
:103BBC00012053469CB203E00130023207280FD09B
:103BCC001388002BF8D0DB08A342F5D14C4B53449F
:103BDC00013B01221A70494B52461A70C0B285E063
:103BEC004A4B1E78002E11DD0123FF24454F002087
:103BFC00AC4602E00133B34207DC9942FAD05A1EBC
:103C0C003F4DAC54BA181070F4E7654600243E4B97
:103C1C0098460E23434456469B46A9461DE04D4606
:103C2C00B246340034E00231814215D00B88002BAF
:103C3C00F9D0DB08DBB2013BD75C002FF3D1304F5E
:103C4C007F5D0137FFB22E4EF65CBE42EBD92C4E97
:103C5C00F7542C4EF454E6E7564601A8FFF776FFCE
:103C6C00002813D101A92648FFF752FF0130C4B236
:103C7C00B442D4D0651E01AB01225A5516206843BC
:103C8C00811C414458441A00B246CFE74D46B24617
:103C9C001C4B1B19013B1A780023002A0ED0174924
:103CAC008C46184E00E00A00581C6146CC54B318E0
:103CBC00013B19781400C3B20029F4D101200F493B
:103CCC000F4B53441F00013F03E00130023507281E
:103CDC000BD02B88002BF8D03A788A18013A12783E
:103CEC00DB089A42F1D1C0B200E000200FB03CBC1E
:103CFC0090469946A246AB46F0BDC046D46A002019
:103D0C00341800205018002094110020440000208A
:103D1C00F0B5D6464F464646C0B584B00500039074
:103D2C00564C574B220043CB43C2196811609B88F9
:103D3C0093802000FCF7EAF982B201235B420093E6
:103D4C003333210028000AF07FF901244D4F4B4DED
:103D5C000126764222003900280010F0EBFA2800E8
:103D6C00FCF7D4F982B200963223290003980AF0AA
:103D7C006BF90134072CEDD101235B4200933333F3
:103D8C000322414903980AF05FF9404B1B78002B42
:103D9C0065D0002601277F423D4B99460E234B44AC
:103DAC009A462AE007231340D2083A49334810F0C8
:103DBC00C1FA324D2800FCF7A9F982B200973223E0
:103DCC00290003980AF040F90234B44207D0228843
:103DDC00002AE7D13049294810F0ACFAE9E7464609
:103DEC000097322302222D4903980AF02DF901364F
:103DFC00F6B2264B1B78B34231D9721C1F4C2849A2
:103E0C00200010F097FA2000FCF780F982B200979E
:103E1C003223210003980AF017F9162575434B46F7
:103E2C00EB5A5900C91849001E4BC918052220002D
:103E3C0010F0D5FA0097322305222100039C2000B4
:103E4C000AF002F9009732230122174920000AF0E8
:103E5C00FBF8AC1C4C445544B0462E00B7E701238C
:103E6C005B42009333330122104903980AF0ECF8BB
:103E7C0004B01CBC90469946A246F0BDC417002065
:103E8C00648A0108788A01088CA10108440000208A
:103E9C0094110020908A01088C8A01080C89010871
:103EAC00808A0108CC8A0108748A010850A3010891
:103EBC00F0B5C64600B584B005000390304C314BCC
:103ECC00220043CB43C243CB43C21B681360200088
:103EDC00FCF71CF982B201235B42009333332100BF
:103EEC0028000AF0B1F8284B1B7801229046002BD1
:103EFC002CD0264E25E023000A2C1AD05C1CA95B82
:103F0C00802212021A410A42F5D01D4F230042466C
:103F1C001F49380010F00EFA3800FCF7F7F882B29F
:103F2C0001235B4200933333390003980AF08CF879
:103F3C00E1E743460133DBB29846134B1B7843450C
:103F4C0004D300234246551E6D00D7E70C4C114B91
:103F5C00220023CB23C223CB23C203CB03C22000DA
:103F6C00FCF7D4F882B201235B4200933333210077
:103F7C0003980AF069F804B004BC9046F0BDC04642
:103F8C00C4170020148A010844000020506F002040
:103F9C00308A0108448A0108F0B5D64600B584B0D1
:103FAC0003900AF0E9FA0400002303708D4B1A7891
:103FBC008D4D8E49280010F0BDF92900200010F01D
:103FCC00D9F98B4B1A788B49280010F0B3F92900DA
:103FDC00200010F0CFF906230093043B0022864901
:103FEC00280010F0A7F92900200010F0C3F9834A2B
:103FFC008349280010F09EF92900200010F0BAF92E
:10400C00804A8149280010F095F92900200010F011
:10401C00B1F97E4B2A0043CB43C2196811609988D1
:10402C0091809B7993712900200010F0A3F901274E
:10403C006D4D774B9A460EE06B4B764A11681960C2
:10404C009188998092799A716749200010F092F9C1
:10405C000137072F39D03A006F49280010F06AF960
:10406C002900200010F086F95346FB5C042BEBD89A
:10407C005346FB5C9B00694AD3589F465A49684B90
:10408C000A0043CB43C203CB03C21B781370DBE79C
:10409C00554A644B43CB43C2D6E75349624B0A00A3
:1040AC0043CB43C243CB43C21B881380CCE74E495E
:1040BC005E4B0A0043CB43C243CB43C21968116029
:1040CC00998891809B799371BEE74749584B0A00B8
:1040DC0061CB61C261CB61C2200010F04BF9554F2E
:1040EC0001260DE0404D32005349280010F022F912
:1040FC002900200010F03EF901363837072E18D071
:10410C003B68002BEED0786A06F070FE0500B30019
:10411C00043B4A4AD05806F069FE00902B0032004E
:10412C004749314810F006F92F49200010F022F9C8
:10413C00E2E72000FBF7EAFF2018032241490FF0C9
:10414C00C4FE2000FBF7E2FF20181D223E490FF0B1
:10415C00BCFE2000FBF7DAFF824600223B4F214ECB
:10416C0002E02A00062D13D0551C3378013B5B006E
:10417C00D95B80231B0213410B42F2D02A00344935
:10418C00194810F0D7F81849200010F0F3F8E8E7B8
:10419C002000FBF7BBFF53461B041B0C98420ED0B0
:1041AC002000FBF7B3FF2018032226490FF08DFEE9
:1041BC00039B002B09D104B004BC9246F0BD20181F
:1041CC00052224490FF081FEEAE72000FBF79EFF51
:1041DC0082B201235B42009333332100039809F030
:1041EC0033FFE8E792170020C41700205888010815
:1041FC008A1100207488010890880108B088010891
:10420C00BC880108D4880108E0880108FC880108F2
:10421C001418002018890108108901083488010835
:10422C00208901083889010844890108608901083E
:10423C00808901080C24002098890108D01E0020D8
:10424C00B48901080C890108E4890108506F002029
:10425C00048A01080C8A0108F0B5C64600B50500B1
:10426C002949FBF749FF002810D028492800FBF703
:10427C0043FF002845D02B789846232B0BD0244B9A
:10428C001F78002F2AD0234E00241CE0224B1878D4
:10429C0004BC9046F0BD681C0FF08DFBC3B2002B24
:1042AC0003D01B4A12789A4206D21B4A1278662017
:1042BC009A42EDD110B2EBE718B2E9E70134E4B25F
:1042CC000A36BC420AD031002800FBF715FF002843
:1042DC00F4D14346002BF1D020B2D9E70F4F002682
:1042EC0039002800FBF708FF002805D001360A37F3
:1042FC000A2EF5D16420CBE73402FE20204300B215
:10430C00C6E7FF20C4E7C046988A01089C8A0108CA
:10431C0044000020841600209217002078150020FD
:10432C00F0B583B001900D002A4C27001037210006
:10433C002800FBF7E1FE002843D00434BC42F6D140
:10434C00254B1B78012B0FD9244C9F00FF187F00A5
:10435C0023000A3BFF1821002800FBF7CDFE0028A4
:10436C0031D00A34BC42F6D11D4C270064372100F1
:10437C002800FBF7C1FE002828D00A34BC42F6D135
:10438C00184C194B1C601E0023681F683800FBF783
:10439C00BDFE02003900280010F010F8002817D0DC
:1043AC0064683460002CEFD1019B98009C466044FB
:1043BC0040000E4E801929000FF0F8FFFFF78EF821
:1043CC0002E0062000E0072003B0F0BD0720FBE769
:1043DC000820F9E748880108440000208E160020C8
:1043EC00781500200C0100201C18002084160020D9
:1043FC00F0B5C64600B507000E003A4D0024290062
:10440C003000FBF779FE002850D001340A350A2C15
:10441C00F5D1354C2500103521003000FBF76CFE32
:10442C00002858D00434AC42F6D1304B1B78012B09
:10443C000FD92F4C9D00ED186D0023000A3BED1891
:10444C0021003000FBF758FE002846D00A34AC425D
:10445C00F6D1284C284B1C60984623681D68280010
:10446C00FBF754FE0200290030000FF0A7FF0028D4
:10447C0035D0646843461C60002CEED1194B1B7878
:10448C00002B1ED0174B0A3301341A78002A19D08E
:10449C0001340A330A2CF8D1013F18497F0001225C
:1044AC00A2407B5A13437B52002007E0013F134983
:1044BC007F000122A2407B5A13437B5204BC9046DE
:1044CC00F0BD0024A00000194000064B1818310064
:1044DC000FF06CFFE0E70620F0E70720EEE708207E
:1044EC00ECE7C046781500204888010844000020FD
:1044FC008E1600200C01002020180020DC15002056
:10450C0010B582B01E200FF093FA04001E22002179
:10451C000FF0E4FC08498B7D0A7D013A92000748B4
:10452C001258088B0190497D0091054920000FF02D
:10453C0001FF200002B010BD0C6A00204090010861
:10454C00B88A010800B585B00A00074B1978012319
:10455C000393023B02930193033300930B0003F08C
:10456C002FFE05B000BDC0469217002030B587B0B5
:10457C0004000D0000230493039302930193009312
:10458C00002200210020FEF7EBFF621ED3009B1AD5
:10459C00DB00144A9B58002B15D06A1ED3009B1AC3
:1045AC00DB00104A9B58002B04D1200007F068F95F
:1045BC00002006E0200007F063F9280007F060F9FE
:1045CC00002007B030BD6A1ED3009B1ADB00054AE1
:1045DC009B58002B04D0280007F052F90020F0E77C
:1045EC006820EEE70C24002070B505000478002C40
:1045FC0010D0032604E02A7001352C78002C09D049
:10460C000FF008FA0019437833402200012BF2D145
:10461C002032F0E770BD0000F0B5C64600B588B09A
:10462C000500DC4B1C78052C00D110E2DA49A30004
:10463C001A199200002050541A1992008A185070BE
:10464C001819800002304018042200210FF046FC9B
:10465C002B78622B02D1AB782E2B32D0CF4E290087
:10466C0030000FF0A3FECE4C2100300010F01EFDE8
:10467C0005002100002010F019FD0600210000208B
:10468C0010F014FD0400002D00D1E5E12800FFF727
:10469C0081F8051E00D18FE1002E00D08EE167203D
:1046AC00002C00D0D4E1BB4C2378BB499A00D01825
:1046BC008000023646540A18D5700133237000204E
:1046CC00C6E16E78303EF6B20020062E00D9BFE16E
:1046DC00B14AA300191989000130885453180022DB
:1046EC005A709E70EF1C0732AE4938000FF066FE10
:1046FC00002821D1A3001C19A400A74B1C190523C9
:10470C00E370F2009219A84B9B181B7ADB0704D5B7
:10471C00A04A1378013313709AE101230593002307
:10472C000493039302930193009300220121300020
:10473C0008F07AF80020EBE70E229C4938000FF0C5
:10474C003DFE00281CD1A3001C19A400924B1C197F
:10475C000623E370F2009219934B9B181B7A9B076C
:10476C00D6D401230593002304930393029301935E
:10477C00009301220021300008F056F80020C7E712
:10478C000C228B4938000FF019FE00287AD1F20068
:10479C009219854B9B189B78002B30D0F200921904
:1047AC00814B9B18DB78002B4AD0F20092197E4B80
:1047BC009B181B790C20002BAAD1774FA3001B1937
:1047CC009B00FB180B22DA7028000F300FF0EDF86D
:1047DC00C0B2704B1A7893009B189B00FF1838716D
:1047EC0001230593002304930393029301900093F8
:1047FC0000220021300008F017F8002088E7664FEF
:10480C00A3001B199B00FB180922DA7028000F303B
:10481C000FF0CBF8C3B25F4A11788A00521892009D
:10482C00BF183B710122059200220492039202925E
:10483C00019200920021300007F0F6FF002067E79C
:10484C00554FA3001B199B00FB180A22DA70280095
:10485C000F300FF0AAF8C0B24E4B1A7893009B1889
:10486C009B00FF18387101230593002304930393D5
:10487C0002930193009000220021300007F0D4FF36
:10488C00002045E70D224B4938000FF097FD03003F
:10489C000020002B00D03BE7F2009219424B9B18F2
:1048AC005B79002B31D0F20092193F4B9B189B790E
:1048BC00002B4CD0F20092193B4B9B18DB790D204E
:1048CC00002B00D024E7344F143398465C433C193A
:1048DC00063BE370280010300FF067F8C0B22D4B88
:1048EC001B7842465343FF183871012305930490FB
:1048FC0000240394029401940094230022002100CC
:10490C00300007F091FF200002E7234FA3001B1992
:10491C009B00FB180C22DA70280010300FF045F8C1
:10492C00C0B21C4B1A7893009B189B00FF1838716F
:10493C0001230593002304930393029001930093A6
:10494C0000220021300007F06FFF0020E0E6124F3C
:10495C00A3001B199B00FB180D22DA7028001030E5
:10496C000FF023F8C0B20B4B1A7893009B189B00E6
:10497C00FF183871012305930023049303900293CD
:10498C000193009300220021300007F04DFF00201E
:10499C00BEE6C0463F190020286A0020A41800205B
:1049AC0014890108C0A10108702500204492010857
:1049BC005492010864920108002E4FD0002C4FD065
:1049CC002000FEF7E7FE002824D0274B1C78274A4E
:1049DC00A3001919890004278F541919890051183B
:1049EC00CD70C871204D2C783000FEF7E9FE1F49C0
:1049FC00A3001B199B00CB1858702A7893009B18A6
:104A0C009B00CB185B78002B2CD00132164B1A7004
:104A1C0000201DE0144B98461A78144F93009918F7
:104A2C0089000320C8557B18DD7020000EF0B8FFFC
:104A3C00FEF7C4F8079043461B789800C018800016
:104A4C000630C019042207A90FF03FFACAE70E205E
:104A5C0008B004BC9046F0BD6720F9E76720F7E783
:104A6C006720F5E76720F3E73F190020286A00204C
:104A7C00F8B50C00022817D0032803D001280FD05A
:104A8C0000200CE0354B1A78013A93009B189B00E0
:104A9C00334AD31801221A7406F08AF80020F8BDA4
:104AAC000800FFF7B9FDFAE72C4B1D78013DAB0070
:104ABC005B199B002A4AD318DE68002E3DD03000CB
:104ACC00FBF724FB07002000FBF720FB3918023111
:104ADC0030000FF035FA224EAB005D19AD007519A0
:104AEC00E8601E4D2A78013A93009B189B00F3183E
:104AFC007A1CD868801821000FF058FC2A78013AEB
:104B0C0093009B189B00F618F3681322DA55134B8D
:104B1C001A78013A93009B189B001149CB18DB685B
:104B2C000020002BBBD1900080188000401814226C
:104B3C0000210FF0D3F90E20B1E70800FBF7E6FADD
:104B4C0001300EF075FFAB005D19AD00044B5D1923
:104B5C00E86021000FF02AFCD9E7C0463F1900207D
:104B6C00286A0020F0B5DE4657464E464546E0B56D
:104B7C008BB00490884603921C000922002107A8E0
:104B8C000FF0ACF9D54F2E0034E05222D44920005E
:104B9C000FF09BF9D14B00221A7044E00622D14948
:104BAC0003980FF00BFC002853D0022D5ED02E2161
:104BBC0003980FF0EDFB051E06D003380322CA49FB
:104BCC000FF0FCFB002860D1992292002100039881
:104BDC0009F054FC06002378002B00D06FE1200074
:104BEC00FBF794FA0200002120000FF077F9002E59
:104BFC0000D1ABE10398FFF7F7FC3D78002DCDD148
:104C0C000322BA4903980FF0D9FB0028CFD1039B9C
:104C1C00D91C0130FFF72CFF0028B6D1AF4B022274
:104C2C001A700D2323702378002B00D186E14346A4
:104C3C00002B00D19DE100262000FBF767FA82B221
:104C4C0001235B42009333332100049809F0FCF9F3
:104C5C00C5E7A24B00221A70A5490330FFF708FFE5
:104C6C004122A44920000FF030F9DCE7039902201F
:104C7C00FFF7FEFE002802D10D232370D3E752224A
:104C8C00974920000FF021F9CDE70EF0C3FE6B78A9
:104C9C00C01843785B0797D403996A1A07A80FF0DA
:104CAC009EFB07A8FFF7D8FA0590934A1278934613
:104CBC0090423DD0642843D0662847D0FF284BD083
:104CCC006B461B7D9A46FE2B78D0013506228B490C
:104CDC0028000FF073FB002800D0B4E0884B0022B2
:104CEC001A701921504603F045FA642009F033FB81
:104CFC00844B1A78804B18780023514605F026F91E
:104D0C007F4B1B78602B8ED1FA21890001200AF091
:104D1C004DFE7D4B1B78002B85D07C4A13880133CC
:104D2C001380059B22007A4920000FF003FB7AE7E1
:104D3C009922681C9200210009F0A0FB06004AE7AA
:104D4C002722744920000FF0C0F86CE72522724925
:104D5C0020000FF0BAF866E71A2200216F480FF016
:104D6C00BDF801350398FBF7D1F9060007AB180025
:104D7C00FBF7CCF9721E121A290069480FF02FFBB1
:104D8C000398FBF7C3F9060007A8FBF7BFF9331A22
:104D9C009BB21722FF21584603F0C4F999229200C6
:104DAC002100280009F06AFB06002000FBF7AEF991
:104DBC0020181D225B490FF088F80CE7059B1B128D
:104DCC00DBB29A46584B994652461A701A22002169
:104DDC0052480FF083F86B1C05930398FBF796F978
:104DEC00050007AA1000FBF791F9013D2A1A059955
:104DFC004B480FF0F4FA0398FBF788F9050007A865
:104E0C00FBF784F92B1A9BB217225146584603F034
:104E1C0089F9394B1B78013B5B00444A9B5A4A4643
:104E2C0012781341DB0706D407AB2200404920005F
:104E3C000FF080FACFE6992292002100059809F034
:104E4C001DFB0600F0E70398FBF760F9060007ABC3
:104E5C001800FBF75BF9721E121A290030480FF08C
:104E6C00BEFA0398FBF752F9050007A8FBF74EF9B9
:104E7C00013D2A1A92B21721504603F07BF9059A8C
:104E8C002C4920000FF056FA2378002B02D0434611
:104E9C00002B08D12000FBF739F90200002120007B
:104EAC000FF01CF82CE72000FBF730F982B201233D
:104EBC00009331332100049809F0C6F8EAE7434621
:104ECC00002B00D18BE6B7E601235B420093333312
:104EDC0038221949049809F0B7F843E06C190020FE
:104EEC007C900108D09001081C9101087890010871
:104EFC007C8A0108D890010892170020BC91010807
:104F0C008C6900208A11002030180020F821002024
:104F1C00E89101082091010848910108081400202B
:104F2C0054160020709101083E190020DC15002059
:104F3C0090910108C4910108089201082000FBF728
:104F4C00E5F80200002120000EF0C8FF0922002124
:104F5C0007A80EF0C3FF0B4B1B78002B02D1434666
:104F6C00002BB1D10BB03CBC90469946A246AB4647
:104F7C00F0BD2000FBF7CAF80200002120000EF063
:104F8C00ADFFE3E76C190020F0B5CE4600B586B056
:104F9C000F2302AA9446634400221A70012149424D
:104FAC0001200AF003FD09F0E7FA0390E1231B034B
:104FBC004A4A92689A420FD00124494F1D0003E0DF
:104FCC000134E4B2072C07D03B78A342F8D0290077
:104FDC00200009F083F8F3E7424B1A8853009B1822
:104FEC005B00414A9B18414A1278414C3C4D297850
:104FFC000091404920000FF09DF9A42228780A2343
:10500C0092003D4909F048F82000FBF77FF882B286
:10501C0028780A23210009F03FF800239946374CE1
:10502C002F4E374F1EE02E4B18780A23022235499B
:10503C0009F032F84B46002B40D0334D284B1878F2
:10504C00039B2A000121FFF78DFD29002F480FF04B
:10505C00ADF93222002128000EF040FF00239946C2
:10506C000AF05EFF2378012BFAD13078421E0F250F
:10507C0002AB9C466544BB5C2B700023BB541F4A9F
:10508C0013700A330122290009F006F82B780D2B36
:10509C00C9D00A2BE4D0082B15D07F2B13D01A00C3
:1050AC00203A5E2ADCD84A46312AD9DC164A4946CF
:1050BC0053544B4601335BB29946D1E7134912481E
:1050CC000FF074F9B9E74B46002BC9DD013B5BB21D
:1050DC0099460D4B002249465A54C1E70C6A0020F0
:1050EC008A11002078000020CC8A01089217002039
:1050FC004019002074920108A0920108931100201D
:10510C00F01900205CAB0108701800200C1900206D
:10511C0070B50C001C4B1A78013A93009B189B003D
:10512C001A4AD318DB68002B2CD0194B1B68002BA8
:10513C0014D0174B1D682B78002B12D0132128008C
:10514C000FF026F9061E11D0421B290020000FF08B
:10515C0046F901360E4B1E60012006E00C4B186020
:10516C00E7E70B4B00221A60002070BD29002000DD
:10517C000FF01CF92000FAF7C9FF2D18044B1D6025
:10518C000120F2E70020F0E73F190020286A0020F8
:10519C0068190020F0B583B0040083001B189B0035
:1051AC003F4A9B5C012B03D0032B15D0002011E050
:1051BC003B4983001A1892008A189078C200121882
:1051CC001B199B00CB183749505CDB78C01A434243
:1051DC005841C0B203B0F0BD314E85002B189B0076
:1051EC00F318DA78013A53009B189B002E4A9B580F
:1051FC001F682918890006318919042201A80EF0AC
:10520C0064FE2D19AD0075196B78062B3FD89B00E9
:10521C00264AD3589F46391C0198FBF753F9431E75
:10522C009841D7E7391C0198FBF752F9431E984176
:10523C00D0E7391C0198FBF75FF9002829D0002131
:10524C00381CFBF73FF943425841C3E7391C01981E
:10525C00FBF748F9431E9841BCE7391C0198FBF752
:10526C0055F9002817D00021381CFBF72BF94342C5
:10527C005841AFE7391C0198FBF724F900280CD1F1
:10528C000021381CFBF71EF943425841A2E70020CD
:10529C00A0E700209EE700209CE700209AE7C0468C
:1052AC00286A002070250020AC0000205C900108CA
:1052BC00F8B509F061F905001C4B1B78002B32D0B6
:1052CC0000241B4F1AE01B4B18782B001A4A0021A4
:1052DC00FFF748FC2800FAF719FF0200002128000C
:1052EC000EF0FCFD1449F068FFF712FF0028EAD11C
:1052FC000134A4B20D4B1B78A34214D9A3001B1983
:10530C009B00FB181B7C002BF2D0E0B2FFF742FF96
:10531C000028EDD0094B20221A70A3001E19B600EC
:10532C00034B9E19DEE70020F8BDC0463F19002054
:10533C00286A00208A110020D81800208C690020CF
:10534C000020704770B582B0050014000023019353
:10535C00009301AA0121200009F012F90023C35681
:10536C00702B0ED06A460221200009F009F90EF0CC
:10537C0022FB13220F4928000EF0A7FD002002B0DB
:10538C0070BD01300EF017FB06006A4602212000AA
:10539C0009F0F6F80EF00FFB0400F0B2210008F053
:1053AC009DFEFF2333402200034928000EF0C2FF6C
:1053BC00E4E7C0462C9F0108049F010810B5034B7D
:1053CC001A8803490EF0B6FF002010BDCCF7FF1F62
:1053DC00F898010810B582B0040010000023019366
:1053EC000023009301AA012109F0CAF80378323B8B
:1053FC00012B07D915220B4920000EF066FD002069
:10540C0002B010BD0EF0D7FAC0B2694607F0A8FC86
:10541C000098FDF781FB02000B00034920000EF001
:10542C0089FFECE7F4950108D095010810B582B01E
:10543C000400002301930093694601A807F0D2FBF6
:10544C0001A920000EF0B2FF0098FDF765FB0200E9
:10545C000B00034920000EF06DFF002002B010BDC0
:10546C004096010810B582B004000023019300930C
:10547C00694601A807F0B6FB01A920000EF096FFC3
:10548C000198FDF749FB02000B00034920000EF0C8
:10549C0051FF002002B010BD0C96010870B584B00D
:1054AC00050016000023039302930023019303AA23
:1054BC000121300009F064F8040002AA0221300036
:1054CC0009F05EF806002378323B012B07D9152230
:1054DC00194928000EF0F9FC002004B070BD200022
:1054EC000EF069FAC4B215493000FAF705FE00282F
:1054FC0005D013493000FAF7FFFD002816D10F4EE6
:10550C003100200007F00EFD01AA3100200007F049
:10551C003BFD01A928000EF049FF0198FBF74AF862
:10552C0082B2084928000EF005FFD5E71222064981
:10553C0028000EF0CAFCCFE7F4950108809501080D
:10554C00849501088C9501089C950108F0B5D64608
:10555C0000B586B00390100000230593614B1A78B8
:10556C0004AB1A7005AA012109F00AF804005E497F
:10557C00FAF7C2FD002876D15C4B1A785C4B9B186D
:10558C00013B1E780124594D40E022005949039FEC
:10559C0038000EF0CFFE3800FAF7B8FD82B2534B4C
:1055AC001878642300935A3B390008F04DFD5422BF
:1055BC005149039F38000EF088FC3800FAF7A6FD1D
:1055CC0082B24A4B1878642300935A3B390008F096
:1055DC003BFD0136454B1A78013A53009B189B0151
:1055EC00464AD3189B5D002B0DD192463F4F0120AC
:1055FC000AF002FE3A78013A53009B189B0153447F
:10560C009B5D002BF3D00134072C35D0E7B22B78FF
:10561C00BB42F8D00EF07AFC02AB187264230093F4
:10562C005A3B012204A9380008F00EFD380008F09E
:10563C00E9FC03689B8C02AA127ADBB29A42A4D0D2
:10564C0022002F49039F38000EF074FE3800FAF741
:10565C005DFD82B2254B1878642300935A3B3900C8
:10566C0008F0F2FCA3E70023E356702B09D00F22BD
:10567C00244903980EF029FC002006B004BC924685
:10568C00F0BD601C0EF097F90400C6B2731E052B1A
:10569C0005D91B221C4903980EF017FCECE70EF001
:1056AC0035FC04AF387064230093323B012239007F
:1056BC00300008F0C9FC002008F0A4FC03689B8CA7
:1056CC003A78DBB29A4206D0FF2222400C4903986A
:1056DC000EF030FED0E7FF222240064903980EF070
:1056EC0029FEC9E7408701089C8A01088A1100201D
:1056FC00781E002074AF0108A4AF0108F81900202F
:10570C0090AF0108F8AF010808B0010870B582B07D
:10571C000500140000230193009301AA012120002D
:10572C0008F02EFF0023C356702B0ED06A460221C0
:10573C00200008F025FF0023C356702B1DD00F222C
:10574C00194928000EF0C1FB14E001300EF033F9BA
:10575C0006006A460221200008F012FF0023C356FF
:10576C00702B0ED067206728E9D019220F4928002A
:10577C000EF0ABFB002002B070BD01300EF01BF937
:10578C00DDE701300EF017F90400C1B2F0B2FEF7FC
:10579C00EDFE0028E7D1FF222300134032400449DC
:1057AC0028000EF0C7FDE5E7F8AF0108C0B001080E
:1057BC00A0B0010870B582B005001400002301935D
:1057CC00009301AA0121200008F0DAFE0023C35641
:1057DC00702B0ED06A460221200008F0D1FE002367
:1057EC00C356702B1DD00F22194928000EF06DFBEB
:1057FC0014E001300EF0DFF806006A4602212000AA
:10580C0008F0BEFE0023C356702B0ED0672067280D
:10581C00E9D017220F4928000EF057FB002002B0E8
:10582C0070BD01300EF0C7F8DDE701300EF0C3F8A3
:10583C000400C1B2F0B2FEF785FE0028E7D1FF22CA
:10584C00230013403240044928000EF073FDE5E7B5
:10585C00F8AF01089497010870970108F0B5DE467F
:10586C004F464646C0B584B0019010000023039308
:10587C0003AA012108F084FE0EF097F80400C5B2CB
:10588C00002D03D0314B1B78AB420BD22322304975
:10589C0001980EF01AFB002004B01CBC90469946EF
:1058AC00A346F0BDFF270740013F2A4B9946BB009A
:1058BC009846DB199B0000264A469E544346DB194A
:1058CC009B004B449B465E704346D81980000230C7
:1058DC004844042200210EF001FB5B461E74D8687C
:1058EC000EF0B0F85F46FE60184B1F78BD4222D216
:1058FC00FF2323409C00E418A400164964187A1E68
:10590C00521BD2B2D3189D00ED18AD0014316D1896
:10591C0002E01434AC420ED02378002BF9D01422C0
:10592C002100200014380EF0D0FA1422002120009F
:10593C000EF0D4FAEDE7013F044B1F7005F038F977
:10594C003622054901980EF0C0FAA4E73F19002051
:10595C00B4980108286A00207C98010810B582B020
:10596C00040010000023019301AA012108F008FE95
:10597C000EF01BF8C3B2002B03D00F4A12789A42D8
:10598C0007D223220D4920000EF09FFA002002B00E
:10599C0010BDFF2318400138830018188000084BF5
:1059AC0018180023037405F003F93522054920006B
:1059BC000EF08BFAEAE7C0463F190020B4980108B4
:1059CC00286A0020C49C010810B582B004001000A5
:1059DC000023019301AA012108F0D2FD0DF0E5FF8F
:1059EC00C3B2002B03D00F4A12789A4207D223225B
:1059FC000D4920000EF069FA002002B010BDFF2303
:105A0C0018400138830018188000084B181801231F
:105A1C00037405F0CDF83822054920000EF055FA34
:105A2C00EAE7C0463F190020B4980108286A002014
:105A3C0078960108F0B5DE4657464E464546E0B529
:105A4C008BB0040006AA7C4B043323CB23C21B88E7
:105A5C0013807A4B187801235B420093333337223F
:105A6C00774908F0F1FA774B1B78002B00D1D5E081
:105A7C000026754B9946754DBDE0734B9B46B300A4
:105A8C009A469B199B005B441A7CD3009B1A06AA6E
:105A9C009446634442466E4920000EF04BFC53463C
:105AAC009B199B005A469B5C012B2CD0032B00D0DE
:105ABC00ADE0B100891989000631634E89190422C1
:105ACC0005A80EF002FABB00DB199B00F618F27861
