:020000040800F2
:100000000040022049990108D9990108D1840108CA
:1000100000000000000000000000000000000000E0
:100020000000000000000000000000005FA10108C7
:10003000000000000000000071A20108BD8401085A
:10004000D9990108D9990108D9990108D9990108C4
:10005000D9990108D9990108D9990108D9990108B4
:10006000D9990108D9990108D9990108D9990108A4
:10007000D9990108D9990108D9990108D999010894
:10008000D9990108D9990108D9990108D999010884
:10009000D9990108D9990108D9990108D999010874
:1000A000D9990108D9990108D99901081185010840
:0C00B0004185010871850108D9990108FB
:1000C00010B5064C2378002B07D1054B002B02D02E
:1000D000044800E000BF0123237010BD980C0020ED
:1000E0000000000048AD0208044B10B5002B03D0FF
:1000F0000349044800E000BF10BDC04600000000F6
:100100009C0C002048AD020802780B78002A03D02E
:10011000013001319A42F7D0D01A70470023C25CF7
:100120000133002AFBD1581E7047000002B471460B
:1001300049084900095C49008E4402BC7047C0462A
:1001400003B47146490840004900095A49008E44E9
:1001500003BC7047002243088B4274D303098B42CF
:100160005FD3030A8B4244D3030B8B4228D3030C87
:100170008B420DD3FF22090212BA030C8B4202D329
:100180001212090265D0030B8B4219D300E0090A51
:10019000C30B8B4201D3CB03C01A5241830B8B425A
:1001A00001D38B03C01A5241430B8B4201D34B0343
:1001B000C01A5241030B8B4201D30B03C01A5241A8
:1001C000C30A8B4201D3CB02C01A5241830A8B422D
:1001D00001D38B02C01A5241430A8B4201D34B0216
:1001E000C01A5241030A8B4201D30B02C01A52417A
:1001F000CDD2C3098B4201D3CB01C01A524183092E
:100200008B4201D38B01C01A524143098B4201D367
:100210004B01C01A524103098B4201D30B01C01A92
:100220005241C3088B4201D3CB00C01A524183080C
:100230008B4201D38B00C01A524143088B4201D339
:100240004B00C01A5241411A00D201465241104699
:100250007047FFE701B5002000F0F0F802BDC0468E
:100260000029F7D076E7704703460B437FD400227E
:1002700043088B4274D303098B425FD3030A8B423A
:1002800044D3030B8B4228D3030C8B420DD3FF22A4
:10029000090212BA030C8B4202D31212090265D072
:1002A000030B8B4219D300E0090AC30B8B4201D325
:1002B000CB03C01A5241830B8B4201D38B03C01A6C
:1002C0005241430B8B4201D34B03C01A5241030BE3
:1002D0008B4201D30B03C01A5241C30A8B4201D394
:1002E000CB02C01A5241830A8B4201D38B02C01A3F
:1002F0005241430A8B4201D34B02C01A5241030AB6
:100300008B4201D30B02C01A5241CDD2C3098B429A
:1003100001D3CB01C01A524183098B4201D38B0117
:10032000C01A524143098B4201D34B01C01A5241BA
:1003300003098B4201D30B01C01A5241C3088B42FF
:1003400001D3CB00C01A524183088B4201D38B00EA
:10035000C01A524143088B4201D34B00C01A52418C
:10036000411A00D201465241104670475DE0CA0F63
:1003700000D04942031000D34042534000229C4623
:1003800003098B422DD3030A8B4212D3FC2289012D
:1003900012BA030A8B420CD3890192118B4208D303
:1003A000890192118B4204D389013AD0921100E065
:1003B0008909C3098B4201D3CB01C01A5241830979
:1003C0008B4201D38B01C01A524143098B4201D3A6
:1003D0004B01C01A524103098B4201D30B01C01AD1
:1003E0005241C3088B4201D3CB00C01A524183084B
:1003F0008B4201D38B00C01A5241D9D243088B42A1
:1004000001D34B00C01A5241411A00D20146634643
:1004100052415B10104601D34042002B00D54942A7
:10042000704763465B1000D3404201B5002000F0E6
:1004300005F802BD0029F8D016E770477047C0469E
:100440008446100062468C461900634600E0C046B0
:100450001FB501F0DDFF002801D40021C8421FBDF7
:1004600010B501F02DFF4042013010BD10B501F074
:10047000CFFF002801DB002010BD012010BDC046C9
:1004800010B501F0C5FF002801DD002010BD0120DE
:1004900010BDC04610B501F055FF002801DC00205A
:1004A00010BD012010BDC04610B501F04BFF002863
:1004B00001DA002010BD012010BDC04684460800AE
:1004C0006146FFE71FB500F001FD002801D40021BF
:1004D000C8421FBD10B500F08DFC4042013010BD78
:1004E00010B500F0F3FC002801DB002010BD012056
:1004F00010BDC04610B500F0E9FC002801DD002069
:1005000010BD012010BDC04610B500F099FC0028B8
:1005100001DC002010BD012010BDC04610B500F068
:100520008FFC002801DA002010BD012010BDC0465C
:10053000994201D1801A04D002D201204042704772
:1005400001207047002B11D1002A0FD1002900D1C2
:10055000002802D00021C943080007B4024802A1C4
:100560004018029003BDC046D5FEFFFF03B46846A5
:1005700001B5029800F0BCF8019B9E4602B00CBC8D
:100580007047C046F0B5CE46474680B5070099464D
:100590003B0C9C4613041B0C1D000E00614600041E
:1005A000140C000C45434B4360436143C0182C0CB2
:1005B00020188C46834203D980235B029846C444AA
:1005C000494679437243030C63442D042D0CC9182A
:1005D000000440198918C0BCB946B046F0BDC046F9
:1005E0009E2110B5C905041CFFF798FF002803D110
:1005F000201C00F083FF10BD9E21201CC90500F0C7
:10060000CFFD00F07BFF80231B069C466044F2E791
:1006100070B500220C4B04000D00FFF745FF0028C9
:1006200004D12000290002F073FD70BD064B0022AA
:100630002000290002F0BCF902F06AFD80231B06AD
:100640009C466044F1E7C0460000E04170B50500FB
:100650000C000022002328002100FFF707FF0028DC
:1006600008D12800210000F00FF802000B00100054
:10067000190070BD80231B06E118280000F004F863
:10068000002342428B41F2E770B500220B4B0D0074
:10069000040001F021FFFFF7BBFF060002F09EFD02
:1006A0000022074B01F018FF02000B002000290078
:1006B00002F07EF9FFF7ACFF310070BD0000F03DA5
:1006C0000000F04170B50600080002F057FD00225E
:1006D000064B01F001FF0D000400300002F07EFD2A
:1006E0002B00220000F0BAFF70BDC0460000F041B0
:1006F000F0B557464E464546DE46E0B504000D00CF
:100700009246994683B08B4230D82DD04946504608
:1007100002F078FE29000600200002F073FE331A72
:100720009846203B9B4633D45A4653469340424614
:100730001F00534693401E00AF423AD8AF4200D14B
:1007400078E05B46A41BBD41002B00DA75E0002277
:1007500000230092019301235A4693400193012301
:1007600042469340009328E08242CFD900220023E2
:10077000009201930C9B002B01D01C605D600098DF
:10078000019903B0F0BCBB46B246A946A046F0BDF5
:10079000424620239B1A5246DA40414613004A46FD
:1007A0008A40170042461F43534693401E00AF4203
:1007B000C4D900220023009201934346002BD9D0D4
:1007C000FB0772081A4346467B080EE0AB4201D194
:1007D000A2420CD8A41A9D41012024196D41002188
:1007E000013E24184D41002E06D0AB42EED9013E09
:1007F00024196D41002EF8D1009801995B4600192B
:100800006941002B24DB2B005A464446D3402A0082
:10081000E2401C005B461500002B2ADB26009E40B0
:10082000330026004746BE403200801A99410090AE
:1008300001919FE7A342BCD883E7424620230021D1
:100840009B1A0022009101920122DA40019286E770
:10085000424620239B1A2A0046469A402300F34032
:10086000444613432A00E2401C005B461500002B5F
:10087000D4DA42462F002023260097409B1ADE4000
:100880003B003343CDE7C046F0B5C64643025B0AA2
:100890004E0245004F00DA00C40F9C46700A904695
:1008A00000B52D0E3F0EC90FB6098C424BD0EA1B86
:1008B000002A36DD002F61D0FF2D00D1ADE080236E
:1008C000DB041E431B2A00DCD3E001204346181A38
:1008D000430100D48CE080018709380002F074FDE8
:1008E00005388740854200DCB6E02D1AB348384011
:1008F000430704D00F230340042B00D004304301EE
:1009000000D478E06A1CFE2D65D08001430A9C4625
:10091000D2B26346D0051843E407204380BCB846F2
:10092000F0BD002A35D07A1B002D00D0AFE0434641
:10093000002B00D1A7E0531E012A00D12FE1FF2A8E
:1009400069D01A00AAE0E91B002970DD002F37D01A
:10095000FF2D62D08023DB041E431B2900DCB0E0A6
:1009600001204044430143D50135FF2D33D00123FD
:10097000934A0340400810401843B9E7002E00D1C5
:1009800083E0511E012A00D1D8E0FF2A45D00A0099
:1009900098E7FE276A1C174200D086E0002D00D0A1
:1009A000B7E04346002B00D1F3E00022002EB0D088
:1009B000981B430100D4FAE043460C00F01A97E775
:1009C000002E00D1C8E04A1E012900D1AEE0FF2967
:1009D00023D01100C1E70023FF229C4699E7FE21A6
:1009E0006A1C114277D0FF2AF5D0150046447008E2
:1009F000430700D07EE7C308FF2D0ED05B025B0AE1
:100A00009C46EAB285E7002E07D08022D20313422B
:100A100003D0104201D10C000300002BDBD080205A
:100A2000C00318434002430A9C46FF2271E7002995
:100A3000D5D07A1B002D60D14346002B24D0531E05
:100A4000012A73D0FF2AE7D01A001B2A00DC85E0B8
:100A500001203D00801985E720233A00451B38001E
:100A60000135EA405D1BA840431E98410025104314
:100A70003EE7202330009B1A31009840D140431EAE
:100A80009841084322E70C0003001500B4E7FF2F4C
:100A9000C1D080234046DB04184380461B2A51DD29
:100AA00001200C003D00301A12E743469F1B7B01DA
:100AB0002BD4002F00D010E70023002400229C46F6
:100AC00027E7202332003000CA40591A8840431ECD
:100AD0009841104345E7002D4AD14346002B63D08F
:100AE0000022002E00D114E730004044430100D41E
:100AF0007EE7324B013518407AE7FF2F8CD08023F8
:100B00004146DB04194388469FE743460C00F71A29
:100B1000E3E64246002A00D075E7002E00D07AE7CF
:100B20008023DB0300249C46FF22F2E63000404491
:100B30000125430100D45BE7022518E74346012560
:100B4000981BC5E6202344464046D4409A1A90405C
:100B5000431E98412043A4E70D004DE72023414662
:100B60004046D1409A1A9040431E9841084370E78E
:100B70004246002A00D14FE7002E00D14DE78022E7
:100B8000D203134200D148E7104200D045E70300EA
:100B900043E7002E90D00C0084460022B9E643467D
:100BA0000C00F01A013593E684460022B1E60028D5
:100BB00000D01DE7002300249C46AAE6FFFFFFFBB0
:100BC000FFFFFF7DF0B54F464646D6464502C0B50D
:100BD00047000C1C6D0A3F0EC60F002F00D170E0BD
:100BE000FF2F00D175E0EB008025ED041D430023AD
:100BF00099469A467F3F6002430A984663001B0E5F
:100C0000E40F002B4ED0FF2B46D04246D00080226E
:100C1000D2040243904600227F3B3100FF1A4B462C
:100C20006140C9B213430F2B00D9B5E06E489B0059
:100C3000C3589F4600239846260045469246534691
:100C4000022B00D189E0032B00D19EE0012B18D0AC
:100C50003B007F33002B69DD6A0704D00F222A4056
:100C6000042A00D004352A0103D5604B1D403B0007
:100C70008033FE2B00DD70E0AD016D0AD8B202E0DA
:100C80000E0000200025C0052843F6073043E0BCD5
:100C9000BA46B146A846F0BD4346002B3FD10222DA
:100CA000FF3F03E04346002B2DD1012231004B468C
:100CB0006140C9B213430F2B34D84D489B00C35831
:100CC0009F46002D13D104239946033B00279A46E3
:100CD00091E7002D05D108239946063BFF279A4648
:100CE00089E70C239946093BFF279A4683E72800AA
:100CF00002F06AFB7627431F9D4000237F429946FE
:100D00009A463F1A77E7404602F05EFB4246431F91
:100D10009A4076235B4290461B1A00227DE7FF2310
:100D200003227AE70E00FF200025ACE70120C01A5D
:100D30001B28A6DC9E372A00BD40C2406B1E9D4189
:100D400015436B0704D00F232B40042B00D0043530
:100D50006B0144D50120002595E7FF20002592E78F
:100D600080250026FF20ED038DE700239846802094
:100D7000C003054209D04346034206D14546054318
:100D80006D022600FF206D0A7DE78020C003054329
:100D90006D02FF206D0A76E742466B0150018342E7
:100DA00019D21B220025013F01261C006D005B00AB
:100DB000002C01DB984201D81B1A3543013A002A66
:100DC000F3D15A1E93411D433B007F330E00002B8D
:100DD00000DD41E7AAE71A2201251B1AE4E7AD016D
:100DE00000206D0A4FE7C04674E00208FFFFFFF7DE
:100DF000B4E0020870B5420045024E024C00C30F39
:100E00006D0A0120120E760A240EC90FFF2A06D0A1
:100E1000FF2C03D0A24201D1B54206D070BD002DF7
:100E2000FCD1FF2CFAD1002EF8D18B4206D0012044
:100E3000002AF3D12800431E9841EFE70020EDE798
:100E400070B5420045024E024C00C30F6D0A120EEF
:100E5000760A240EC80FFF2A1BD0FF2C0ED0002AC2
:100E60001BD1002C01D1002E1CD0002D0CD08342B0
:100E70001CD00221581E0840013870BD002E22D11E
:100E8000002AF4D1002DF2D10028F6D101204042F1
:100E9000F3E7002D17D1FF2CF0D0002CE7D1002E66
:100EA000E5D1E6E70020002DE7D0E2E7A24205DC2D
:100EB000EADBB54202D8E7D30020DEE743425841DF
:100EC00040000138D9E702204042D6E770B5420021
:100ED00045024E024C00C30F6D0A120E760A240E14
:100EE000C80FFF2A0BD0FF2C0DD0002A1FD1002CD9
:100EF00016D1002E14D10020002D10D009E0002DB5
:100F00000CD1FF2C13D1002E08D1002A08D0834227
:100F100012D00221581E0840013800E0022070BDA6
:100F2000002DF4D10028FAD101204042F7E7002C2F
:100F3000EDD1002EEBD1ECE7A24205DCF2DBB542AD
:100F400002D8EFD30020EAE743425841400001387D
:100F5000E5E7C046F0B54F464646D6464402450052
:100F6000C0B5640A0F1C2D0EC60F002D00D18DE0F8
:100F7000FF2D00D192E00023802099469A46E4009C
:100F8000C00404437F3D7802430A98467B001B0E51
:100F9000FF0F002B00D170E0FF2B00D186E042460E
:100FA000D00080227F3BED180023D20402439046FC
:100FB0009C4631004B467940681C0F2B1CD8764A62
:100FC0009B00D3589F4639004446E2465346022BC5
:100FD0000FD0032B00D1D7E0012B37D10020002404
:100FE000C0052043C9070843E0BCBA46B146A8463D
:100FF000F0BDFF200024F3E7260C2404220C444615
:101000002404240C434627001B0C574374435A43C3
:101010005E4312193B0C9B189C4203D9802252025A
:10102000944666443F041A043F0CD2199401671E8B
:10103000BC411B0C920E9B1914439B011C431B01CA
:1010400000D49BE0012362081C40144302007F325D
:10105000002A64DD630704D00F232340042B00D053
:101060000434230103D502004C4B80321C40FE2A7D
:10107000BFDCA401640AD0B2B2E74346002B3DD1E5
:101080004A4601331A4391469C4692E7002C29D1E7
:1010900004239946033B00259A4674E7002C1BD194
:1010A00008239946063BFF259A466CE74346FF35E1
:1010B000002B0BD102234A461A4391469C4678E7FF
:1010C00053463100022B00D083E792E703234A46C0
:1010D0001A4391469C466CE70C239946093BFF2531
:1010E0009A4650E7200002F06FF97625431F9C4096
:1010F00000236D4299469A462D1A44E7404602F075
:1011000063F94246431F9A4000232D1A90469C469D
:10111000763D4EE780240021FF20E40360E70123B1
:101120009B1A1B2B00DD59E722009E30DA408440D9
:101130001300621E94411C43630704D00F23234015
:10114000042B00D0043463011AD50120002447E7A2
:101150008020C003044209D04346034206D14446DE
:10116000044364023900FF20640A39E78020C00389
:10117000044364023100FF20640A31E7280065E778
:10118000A4010020640A2BE78020C003044364020A
:10119000FF20640A24E7C046F4E00208FFFFFFF7DF
:1011A000F8B5CE46474643025B0A4E02DA00944643
:1011B000720A914645004A0080B52D0E1F00C40FEB
:1011C000120EC90FB609FF2A5BD0012041408C42A4
:1011D00039D0A81A00285ADD002A6AD0FF2D00D184
:1011E000D9E08022D20416431B2800DCE9E001206C
:1011F0006346181A430100D4B4E08001870938001F
:1012000002F0E2F805388740854200DCCCE02D1A78
:10121000B5483840430704D00F230340042B00D0C7
:101220000430430100D4A0E06A1CFE2D00D18DE003
:101230008001470AD2B2D0053843E4072043C0BC3E
:10124000B946B046F8BDA81A8046002845DD002AF8
:1012500070D0FF2D00D19EE08023DB041E43434667
:101260001B2B00DCD2E00120604443017AD501351C
:10127000FF2D6BD001239D4A0340400810401843C6
:10128000C8E7002E20D08C4223D02800FF38002849
:1012900039D0571B002D00D09DE06346002B00D1B4
:1012A000DBE07B1E012F00D10DE1FF2F71D01F006D
:1012B00098E0002E00D1A7E0421E012800D1E6E010
:1012C000FF2868D010008FE701204140A14200D0E4
:1012D0007FE7FF2040428046A8444046002838D09F
:1012E000511B002D00D1AEE0FF2A00D1DFE08023AA
:1012F0006046DB04184384461B2900DCD9E001204A
:1013000015008019B1E7FE206A1C104271D1002D32
:1013100000D0A6E06346002B00D1D9E00022002EC9
:1013200000D188E7981B430100D4E1E063460C003C
:10133000F01A6FE7002E00D1B7E00200013A012851
:1013400000D19CE0FF2826D0904688E7FF220027A6
:1013500071E7FE206A1C104264D0FF2AF6D0150007
:1013600066447008430700D056E7C308FF2D12D02B
:101370005B025F0AEAB25EE76246002A00D196E0AD
:10138000002E08D08022D203134204D048461042D7
:1013900001D10C004B46002BD8D08027FF031F4300
:1013A0007F02FF227F0A46E720233A00451B3800D0
:1013B0000135EA405D1BA840431E984100251043BB
:1013C00028E720231B1A32009E40C2403000431EF3
:1013D000984110430CE7FF2ADBD080236046DB04F2
:1013E000184384461B2F56DD01200C001500301ACF
:1013F00000E763469F1B7B013DD4002F00D0FEE633
:1014000000240022002716E70500AFE7320043461C
:101410004146DA4020235B1A9E403000431E98412B
:10142000104321E7002DA7D16346002B59D000229D
:10143000002E00D1FFE630006044430192D52A4BD4
:10144000013518408EE76346002B47D04B1E01291B
:1014500015D0FF292BD019004EE70C004B463D005C
:1014600084E76246002A8BD1002E92D18027002487
:10147000FF22FF03DFE663460C00F71ABFE63000E9
:1014800060440125430100D46CE70225F2E663467F
:101490000125981BAEE6202364466046FC40DF1B16
:1014A000B840431E984120439FE705005EE74B4646
:1014B00071E7202365466046CD40591A8840431E97
:1014C000984128431CE763460C000125F01A91E679
:1014D000002E95D00C004F460022ACE64B460D0086
:1014E00044E74F460022A6E6FFFFFFFBFFFFFF7D1C
:1014F000002800D036E7002400279CE64102420085
:10150000C30F490A0020120E7E2A03DD9D2A02DD48
:10151000094A98187047802000040143952A07DC87
:101520009620821AD1404842002BF3D10800F1E7FF
:10153000963A9140F7E7C046FFFFFF7FF8B50028D5
:1015400013D0C317C6185E40C40F300001F03CFF33
:101550009E2305001B1A962B0FDC082801DD083D91
:10156000AE407602760AD8B202E0002400200026BF
:10157000C0053043E4072043F8BD992B0CDD05225C
:101580003100121AD1400A00010030001B3188409E
:10159000411E884102431600052D12DC31000D4F1B
:1015A0003940720709D00F203040042805D004319B
:1015B0004A0102D59F2339405B1B89014E0AD8B2EC
:1015C000D6E76A1F96403100024F39407207F4D0C7
:1015D000E9E7C046FFFFFFFB70B5051E0ED001F026
:1015E000F3FE9E2304001B1A962B0CDC082801DD59
:1015F000083CA5406D026D0AD8B201E0002000252C
:10160000C005284370BD992B09DD020029001B325B
:1016100091404A1E91410522121AD5400D43052CD6
:1016200012DC29000C4E31406A0709D00F202840F7
:10163000042805D004314A0102D59F2331401B1BE9
:1016400089014D0AD8B2DBE7621F95402900024E9E
:1016500031406A07F4D0E9E7FFFFFFFBF0B54F46E2
:101660004646D6460D000400C0B51F0011002803F1
:10167000620F400A10437A00520DE3003C0391468A
:10168000640AFA0F4F0F6E0027439246B846760D54
:10169000ED0FC900954200D199E04C46341BA44699
:1016A000002C00DC7CE04A46002A00D1B8E0C54AA4
:1016B000964200D11CE180223C0012041443A04653
:1016C0006246382A00DD61E11F2A00DDCCE1644674
:1016D0002022121B444694400F00A14664469140CC
:1016E000E7404C464A1E91413C43424621436446F2
:1016F000E240801A5C1AA3429B415F42C71B3B0237
:1017000000D4D0E07F027F0A002F00D1FFE0380034
:1017100001F05AFE01000839202322005B1A8F4095
:10172000DA408C401743B14200DAFFE0891B4B1CC2
:101730001F2B00DDA8E020223900D21A200094409F
:101740009140D840621E9441DF40002601430C4383
:10175000630709D00F232340042B05D0231DA34288
:10176000A44164423F191C003B0200D49EE0954B0B
:1017700001369E4200D1B7E0934AE40817407B0748
:1017800071057F0223433F0B4A0D12053A43ED07D3
:101790002A4318001100E0BCBA46B146A846F0BD85
:1017A000002C4BD04C46A41BA446002E00D023E1B5
:1017B00004001C4300D1AFE16246541E012A00D14F
:1017C00015E2804DAC4500D1C8E1A4461BE14A4674
:1017D000B21A9446002A00DCACE04A46002A43D004
:1017E000784A964200D1AFE180223C0012041443B3
:1017F000A0466246382A67DC1F2A00DC5FE14746C4
:10180000203AD7406246202A05D064464022121B67
:101810004446944021434A1E91410C003C4357E00A
:101820003A000A4300D105E12200013A012C00D11F
:1018300082E1644CA4455BD0944641E7634C771C3D
:10184000274200D0C4E004001C43002E00D069E110
:10185000002C00D1BFE144460C4300D0D0E1420748
:10186000DB081343C00829E03A000A4300D170E1C5
:1018700062466446013A012C00D1E0E0514CA44597
:1018800000D161E19446B4E73A001F39CA40110023
:10189000202B03D04022D31A9F403C43631E9C411F
:1018A000002700260C43630700D053E7B446E40842
:1018B0007B072343F808434A94451DD0624607033B
:1018C00052053F0B520D60E744460C43621E9441A3
:1018D000E4189C429B415F423F183B02E3D5394BE1
:1018E00001369E4200D0B5E03200002700234CE7CD
:1018F0004207DB081343C0081A00024300D1E1E1AC
:1019000080273F0307433F032E4A3F0B3DE720005C
:1019100001F05AFD010018311F2900DCFCE60838EF
:10192000844027000024B14200DBFFE6264A761AF5
:1019300017400DE7002A2FD04A46921B9446002EEE
:1019400000D1ADE01F4A914500D10FE18022120481
:1019500010436246382A00DD0FE11F2A00DD80E1D6
:10196000644620221E00121B6746040093409440E8
:10197000FE405A1E9341F84034431C43804464188F
:101980008C42BF417F424E464744A6E742460A4347
:1019900011004A1E9141ADE60C4C721C224200D04F
:1019A000A1E002001A43002E00D0FAE0002A00D184
:1019B00045E13A000A4300D046E14207DB08134301
:1019C000C0087BE7FF070000FFFF7FFFFE07000066
:1019D00047465C1AC21BA342BF417F42B94617006B
:1019E0004A46BF1A3A0200D58DE023003B4300D09F
:1019F0008AE60020002561E7B44CA14500D1ADE0A6
:101A00008024240420436446382C3DDC62461F2C8D
:101A100000DDB7E020251E002D1B0400AB40AC40CC
:101A2000D640D04042465D1EAB413443121A904628
:101A300023432CE04207DB081343C0083BE75C1854
:101A40009C429B4140445B42C71801263B0200D4A4
:101A500029E702269E4A63081740012214401C43CE
:101A6000FB071C437F0873E64446203AD440624695
:101A7000202A05D067464022D21B4746974039436B
:101A80004A1E9141214335E60343581E8341CC1A37
:101A9000A142BF4143467F4255464E46DF1B2EE6DC
:101AA00002001A4300D1BDE062466446013A012CAF
:101AB00000D1E5E0854CA44558D0944649E76446FA
:101AC0002022121B444694400F00A14664469140D8
:101AD000E7404C464A1E91413C4342460C43614616
:101AE000CA408018F4E6794CA24200D1FDE65918AC
:101AF00099429B4140445F42C719FC0749081600C0
:101B00000C437F08CFE6CC1AA142BF4143467F4237
:101B1000181A5546C71BF7E5C9087B0755460B43FE
:101B2000F808C8E6002C00D081E043460B4315D1ED
:101B3000802000250003E3E65C1AA3429B41C71BFB
:101B40005B420126FF1ADAE54207DB081343C008AF
:101B5000D2E64207DB081343C008ACE643464246E0
:101B6000C9085B0755460B43D008C5E643464246C5
:101B70005B07C9080B43D008BEE603431C00631E85
:101B80009C41FCE60200203CE24014006246202A10
:101B900003D04025AD1AA8400343581E8341234378
:101BA00075E7002AE2D03A000A43CDD04207DB08AD
:101BB00013438022C0081203104206D0FC081442CE
:101BC00003D12000CB087A0713435A0FDB005207DA
:101BD000DB08134390E643460B4300D109E7434635
:101BE0004246C9085B0755460B43D00866E6CC1A47
:101BF000A14289413F1A4942554601267F1A7EE596
:101C000042465C1A871AA34292415242BF1A3A02D4
:101C10003DD5CC1AA1428941434649421F1A554637
:101C20007F1A95E57B07C9080B43F80843E644464D
:101C3000DB080C4330D142071343C0085CE67B0746
:101C4000C9080B43F80839E65C189C429B414044A4
:101C50005B42C7183B0200D425E61D4B01261F40FE
:101C600021E60400203AD4406246202A04D04022D3
:101C70006646921B904003435A1E93411C437EE6E6
:101C80005C188C428941404449424718DDE62300F4
:101C90003B4300D1ADE606E6440723438024C00859
:101CA0002403204208D04246D608264204D1554695
:101CB0003000CB0851070B435A0FDB00DB085207FB
:101CC000134319E60023014A1F005EE5FF070000E9
:101CD000FFFF7FFFF0B557464E464546DE46E0B56E
:101CE000814605000C03480092461F0085B0240B76
:101CF000400DCE0F002800D156E1D44B984200D1C0
:101D000072E16B0FE4001C4380231B0423439846BD
:101D1000CF4BED009B4600239946834400933C0340
:101D20007B005046240B5B0DFF0F002B00D11FE101
:101D3000C64A934200D162E1C549420F8C46E40095
:101D400059461443802263441204CB1A14439B4621
:101D5000C200002033007B409A464B460F2B27D809
:101D6000BC499B00CB589F46B246009B022B16D025
:101D7000032B00D18EE2012B00D0D9E000230024F8
:101D8000002552461B052343D207134328001900A0
:101D900005B0F0BCBB46B246A946A046F0BD002443
:101DA0000025AA4BEDE7BA46A04615000090DCE7F7
:101DB000444500D2C7E100D1C2E101235B429C4609
:101DC0002E0040460025E3442302140E1C431B0C46
:101DD000994623041F0C1202494600920197FEF710
:101DE0003FFA02007A430B04310C804619438A42C1
:101DF00007D901235B429C460919E0448C4200D874
:101E000007E2881A4946FEF72BFA09048C4631048A
:101E10006646019A090C4243030031438A4204D9C1
:101E20000919013B8C4200D8EDE1881A42461204A0
:101E30001A4390464146009B0E041B0C1F00029360
:101E4000009B360C1B04190C0B007343120C7E43D1
:101E5000039151437A431F0CBC4676186644B14245
:101E600003D9802149028C466244310C8A1831041E
:101E70001E04360C8E19904202D312D1B54210D2F4
:101E80004346591E009B9C4665441F009D429B4152
:101E90005B421B19C018844200D2A0E100D19BE133
:101EA0008846AE1BB542AD41801A6D42401B84424C
:101EB00000D1D5E14946FEF7D3F9019A0B0442431C
:101EC000310C050019438A4200D96CE1881A494651
:101ED000FEF7C6F9019A360442430904360C0300A2
:101EE0000E43B24200D953E10398B61A02002D0402
:101EF0001D43029F2B041B0C5A437B439C46290C19
:101F00004843130C844463447943984203D98020A6
:101F1000400284466144180C12041B04120C411840
:101F20009B188E4200D2FFE000D1FAE001231D434E
:101F3000494A5A44002A00DCAAE06B0700D03DE180
:101F4000ED084346DB0106D54246444B1A40904615
:101F50008022D2005A44424B9A4200DD1FE743469A
:101F60005B071D43434652055C02240B530D08E7F3
:101F70005246224300D17BE0002C00D1FAE0200041
:101F800001F022FA02000B3A1D2301009B1A52466F
:101F90000839DA408C40144352468A40314B584449
:101FA0009B4683440020D5E64B462343984644D0C5
:101FB000002C00D1CEE0200001F006FA0100020062
:101FC0000B391D235B1A49461000D940083884405C
:101FD0000B004D462343984685402348831A9B4671
:101FE0000023994600939AE64B46234398461DD119
:101FF00008239946063B0025834600938FE6524608
:10200000224309D1022349461943184B89469C466D
:1020100000240220E3449DE603234A461A43134B5F
:1020200091469C4652460320E34493E60C2399468E
:10203000093BA0468346009371E60423994600239A
:102040009B4601330025009369E6C046FF07000068
:1020500001FCFFFF34E10208FF030000FFFFFFFE69
:10206000FE070000F30300000DFCFFFF01F8FFFF77
:102070004946012319438946002401206AE60023CA
:1020800080249A4600258A4B24037AE601256D4276
:1020900001239B1A382B00DD70E61F2B00DCBFE00C
:1020A0001F2149428A1A4146D1400A00202B04D000
:1020B0004146804B5B4499400D436B1E9D41072375
:1020C0002A431D0000241540134200D1D4E00F2103
:1020D00000231140042900D1CBE0111D914292410F
:1020E00052429B180A00190200D4C2E001230024C6
:1020F000002546E6802341461B03194208D01C42B6
:1021000006D11C432403BA461500694B240B38E65C
:102110008024434624031C432403B246644B240B0F
:102120002FE6002B00D103E7A619681EA64200D2B5
:102130008DE08E4200D2A3E000D1B3E00500F5E6C9
:10214000AA4200D939E64346DE0758086B081E4309
:10215000ED0739E6484601F037F901000200153174
:1021600020321C2900DC2CE74B4608388340002530
:10217000984632E701F028F903001A0015322030A2
:102180001C2A00DC00E75446083B00229C4005E77F
:102190003619013BB44200D9A6E6B24200D8A3E604
:1021A000831E3619A0E60919013D8C4200D98DE63F
:1021B0008A4200D88AE6851E091987E60F232B403C
:1021C000042B00D1BCE605235B42AB429B410435A6
:1021D0005B42ED089844B4E6AF4200D960E6824223
:1021E00004D800D05CE6AE4200D859E602235B4238
:1021F0009C46009BE0449C4665449D429B415B425B
:102200001B19C0184DE68A4200D80EE6831E091934
:102210000BE68A4200D8F4E5831E98460919F0E5DA
:102220002549280059448D4042468A40691E8D4107
:102230004146D840D94002432A430B00510700D100
:1022400051E70F211140042900D046E74BE7050074
:102250008E4200D06AE6009A934200D066E667E6B6
:10226000164A5A44002A00DC10E70123002598444E
:1022700067E65D075B021C0BD2080023154380E56F
:102280000098023D42008242BF417F423C1936190C
:102290000092DDE78024434624031C432403044BBF
:1022A000240B6EE5009A9A42EAD30500D3E7C046B4
:1022B000FF0700003E0400001E040000FF030000B2
:1022C000F0B54E464546DE4657469046E0B5170007
:1022D0001A03120B0500844619480E034C00914660
:1022E0005A00DB0F9B46360B640DC90F520D84421A
:1022F00019D0824210D0012094420ED14E450CD10B
:102300000120C44509D1594517D0002C05D1300012
:102310002843431E984100E00120F0BCBB46B24672
:10232000A946A046F0BD330001202B43F5D1A242BF
:10233000F3D14B463B43F0D1E2E70020EDE7C04646
:10234000FF070000F0B54746CE460400180016000F
:102350001B031B0B2D4D4A00994680B543000F030C
:10236000A446B0463F0B520DC90F5B0DC00FAA42E9
:1023700021D0AB4213D0002A22D13C43002B02D102
:102380004D462E4322D0002C10D0814222D0022074
:10239000013908400138C0BCB946B046F0BD4D46D1
:1023A0002E4329D1002AF0D13C43EED10028F2D1AE
:1023B00001204042EFE73D0025431DD19342EED07E
:1023C000002BE2D14C462643DFD1E0E70020002C71
:1023D000E1D0DCE79A420ADCE8DB4F45D7D80ED0E3
:1023E00000204F45D7D20029E2D00800D3E743426E
:1023F000584140000138CEE702204042CBE7C445B7
:10240000C5D80020C445C6D2EDE7C046FF0700008E
:10241000F0B54746CE460400180016001B031B0B00
:102420002C4D4A00994680B543000F03A446B046A0
:102430003F0B520DC90F5B0DC00FAA420DD0AB422E
:1024400010D0002A27D13C43002B11D14D462E43FA
:102450000ED10020002C15D00EE03D00254310D1F8
:10246000934218D14D462E430BD1002A02D13C4352
:10247000002C0BD0814214D00220013908400138D1
:1024800000E00220C0BCB946B046F0BD0028F9D13A
:1024900001204042F6E7002BECD14C462643E9D11F
:1024A000EAE79A4204DD4342584140000138E9E737
:1024B0009A42EBDB4F45DFD806D000204F45E1D2F2
:1024C0000029E5D00800DDE7C445D5D80020C44583
:1024D000D8D2F5E7FF070000F0B557464E4645460F
:1024E000DE46E0B598460C034B000600924687B0E6
:1024F000240B5B0DCF0F002B00D15CE1D94A934236
:1025000000D175E1420FE400144380221204144309
:10251000D54AC500944663440093002399469B46E0
:10252000434642461E03D20F5B0050469046360B90
:102530005B0D00D120E1CB4A934200D162E1CA4950
:10254000420F8C4600996344F6008C461643802265
:102550009C44120463461643C20000200093009975
:10256000434601318C4649467B4001930F2926D8CA
:10257000BE4B890059588F464346019334001500DD
:1025800083465B46022B16D0032B00D103E2012BBE
:1025900000D0CDE0002200240025019B120522433B
:1025A000DB071A432800110007B0F0BCBB46B24657
:1025B000A946A046F0BD00240025AA4AEDE7280C54
:1025C0002D042D0C2B00110C1204120C53439846B1
:1025D00013002F00434399464F434F44BB464746A1
:1025E0000B003F0CBA464343DA440293D14504D969
:1025F00080277F02B9464B44029353461B0C9B46EF
:1026000053461F0443461B041B0C98463B0043449F
:102610000493330C3604360C9846330043439946F2
:10262000434643432F009A46434677435D43380C65
:102630004D444519A94503D980235B029946CA44F4
:102640003F04280C3F0C2D04ED19270C2404240C06
:102650000300200050437A4391463A0053440593C7
:10266000030C9A464A43614349445144AB4489456B
:1026700003D980235B0299464A4400040B0C000CEA
:102680000904091820009946434670435C437E4381
:102690005F43030C9846A41944444A440397A64256
:1026A00004D980235B029846474403972304029E83
:1026B0009A46059B5E449846AE42AD4176188E42DE
:1026C00089410004000C504440446D424719B8460B
:1026D000934649428946C344D94498428041A8451B
:1026E000AD4193459241894589416D42404228431D
:1026F000240C524249420A43039B00198018C71810
:102700004B46DC0D049B75021D436A1E95414B46EA
:10271000F60D7F0235435A023C431543FB0100D4BA
:102720001CE101216A080D401543E20715436408C6
:102730004F496144002900DCB0E06B0709D00F224B
:102740002A40042A05D02A1DAA42AD416D426419CF
:102750001500E30104D58021464AC90014406144B4
:10276000454A914200DD26E76207ED08640249050B
:102770001543240B4A0D10E75246324300D17FE047
:10278000002E00D1DCE0300000F01EFE02000B3A0B
:102790001D2301009B1A52460839DA408E40164329
:1027A00052468A40009B3549181A03008C46634400
:1027B00000200093D3E6250005434AD0002C00D129
:1027C000B0E0200000F000FE010002000B391D23E4
:1027D00010005B1A3100350008388440D94085402C
:1027E0000C432648831A0093002399469B4697E69C
:1027F0000500254326D10822009302230024914698
:102800009B468DE65246009B324310D11549002667
:102810008C466344494600930223194389460220AB
:102820009DE65B460197022B00D0ADE6C3E60D4A5C
:102830000320944663444A46009303231A43914677
:1028400052468CE60C2200930323050091469B46DA
:1028500066E60423994600230093013300249B4637
:102860005EE6C046FF07000001FCFFFF74E10208BE
:10287000FF030000FFFFFFFEFE0700000DFCFFFF4F
:1028800049460123194389460026012067E60023B3
:1028900080240025434A019324037EE60120401A48
:1028A000382800DD76E61F285BDD1F222300524218
:1028B000511ACB401900202803D03B4A624494406F
:1028C00025436A1E95412A000A4307210D00002472
:1028D000154011425BD00F2100241140042953D030
:1028E000111D914292415242A4180A0023024BD575
:1028F00001220024002550E680231B031C4209D03E
:102900001E4207D133431C0343461500240B254ABE
:10291000019342E68022120314432403214A240B2C
:1029200001973AE600F050FD010002001531203217
:102930001C2900DC4BE7340008380025844050E7B0
:1029400000F042FD03001A00153220301C2A00DC82
:102950001EE75646083B00229E4023E7009B9C460C
:10296000E6E61249220061442E008D408A40C640AE
:10297000691E8D4132432A43C4405307B6D00F210C
:1029800011400429ACD1B1E765076402240BD208D9
:102990001543002201E68022120314432403014A56
:1029A000240BFAE5FF0700003E0400001E040000AF
:1029B000F8B557464E464546DE46E0B51E001700C0
:1029C0004A000B03520D5B0A9046420F1A43CD0F8B
:1029D000CD4C3103C300944670007A0F490AFF00C2
:1029E0009A46B946400DF60F1143A04200D1B1E01E
:1029F00001225640B346B54200D188E04246121A41
:102A0000002A00DCAEE0002800D1C1E0BE488045CD
:102A100000D151E1802000040143382A00DD7BE130
:102A20001F2A00DDEEE120203E00801A0C00D64077
:102A3000D140874062468440521A781E87419446AE
:102A400034432743DC1BA3429B4162465B42D31ABB
:102A500099464B461B0200D418E14B465802430AE4
:102A600099464B46002B00D137E1484600F0ACFCBC
:102A7000010008392023220048465B1ADA408840CA
:102A80008C4043461043884500DD36E1C91A4B1C93
:102A90001F2B00DDEAE020222600D21A010094401C
:102AA000DE40D84000239140621E94418146984602
:102AB00031430C43630709D00F232340042B05D077
:102AC000231DA342A4416442A1441C004B461B02A7
:102AD00000D4DEE041468C4B0131994200D1E7E061
:102AE0004B468A48E4080340180049055B0740024A
:102AF00023434A0D040B1205ED0722432A43180015
:102B00001100F0BCBB46B246A946A046F8BD4246FD
:102B1000121A002A52DD002800D19CE0A04500D105
:102B2000CAE0802000040143382A00DD49E11F2A61
:102B300000DC97E110000E002038C640202A04D0A7
:102B40004020821A91400F43B9464C46621E944180
:102B500034433AE10A003A4328D0B346B5422BD079
:102B60006B4A4244002A5DD042464446821A002CF9
:102B700000D0F5E065461D4300D19CE1551E012AB9
:102B800000D1FBE1604CA24200D1BDE12A00F0E09F
:102B90000800384300D1C3E0501E012A00D1A8E14B
:102BA000594CA24200D187E0020036E7012256408C
:102BB000B346B54200D021E7554A4244002A00D12D
:102BC000B5E042464446821A002C00D138E14E4E10
:102BD000B04200D1DEE18026644636043443A44688
:102BE000382A00DD96E11F2A00DD24E22026B41AEF
:102BF000A24664465646B440A1461C004E46D44008
:102C0000264334005646B3405E1EB3411C43634620
:102C1000D340C918E419BC42BF417F42B94680463F
:102C20008944D8E040463B4C0130204200D0B4E01B
:102C30004046002800D044E16046184300D190E1AE
:102C40000800384300D0AAE16146DB0849070B437E
:102C50006146CC0827E00800384361D0501E012AA5
:102C600000D139E1A24227D002005DE702001F39FE
:102C7000CA401100202B03D04022D31A98400443AD
:102C8000631E9C410023994698460C43630700D07D
:102C900012E74B464A46E4085B072343D408424602
:102CA00019498A420ED024035205240B520D22E703
:102CB0000A00002400231EE7DB0862465207134384
:102CC0006246D4081A00224300D1FCE1802212039C
:102CD000144324030C4A240B0DE7200000F074FB7E
:102CE000010018311F2900DCC4E60838844043463F
:102CF00020000024884500DCC8E6044A5B1A104026
:102D000098468146D6E6C046FF070000FFFF7FFFDA
:102D100001F8FFFFFE0700000F437A1E974191E67E
:102D20006146DB0849070B436146CC08B8E74046DB
:102D3000D34C0130204200D0A2E04046002800D011
:102D400001E16046184300D15EE10800384300D03D
:102D50005FE16146DB0849070B436146CC08A2E707
:102D6000C84DA84200D1CFE0802564462D042C43F5
:102D7000A446382A56DC1F2A00DDD1E020251E009B
:102D8000AD1A6446AB40AC40D6405D1EAB41344307
:102D900023436446D440091B49E06046DC1B461AC5
:102DA000A34280414042814630004E46801B81460E
:102DB000000276D44B46234300D052E6002400257F
:102DC00071E739430C00621E9441E4189C429B4118
:102DD0005B42634499464B461B0200D456E70123ED
:102DE0009C46A84BE044984538D04B46A648012263
:102DF00003401800630814401C43C3071C434308E6
:102E0000994657E610000E002038C640202A04D00C
:102E10004020821A91400F43B9464F467A1E97418F
:102E200037430FE662461A4313005A1E9341FC1AB9
:102E3000A742BF417F42CB1B99465D46804608E6CC
:102E400066461E4300D1BEE0561E012A00D109E1AC
:102E50008C4CA24200D119E13200C1E64246002466
:102E6000002348E620200C00801A3E008740844062
:102E7000D640781E8741D14034433C438C44A4E77C
:102E8000804A904200D1E9E0DF199F429B416144B2
:102E90005B42C918CC077F084B08994680463C43E3
:102EA000F4E6FC1AA742BF4163467F42C91ACB1B16
:102EB00099465D46D5E5FF084B075D463B43CC0888
:102EC000EEE662461A4300D082E00B003B431BD182
:102ED000802400252403F9E6DC199C429B416144CF
:102EE00089465B4299444B461B0244D401239846D1
:102EF000CCE6DC1B6246A3429B41511A5B42CB1AD3
:102F0000994601239846A4E5FF084B075D463B43DD
:102F1000CC08D7E662461A431400631E9C4179E64A
:102F200015006446203DEC40A046202A05D04025EF
:102F30006446AA1A944023439A465446631E9C4111
:102F40004346234373E762461A4323D00A003A43B9
:102F500000D0A0E06246DB08520713436246D40863
:102F6000B0E60B003B4300D128E7FF084B075D4666
:102F70003B43CC0897E60223984636E7FC1AA74263
:102F8000BF4163467F42C91ACB1B994601235D4668
:102F900098465EE54B07FF083B43CC0892E6DC1BF6
:102FA0006046A342B641401A7642801B8146000229
:102FB00060D5FC1AA742BF4163467F42C91ACB1BAA
:102FC00099465D4676E5FF084B073B43CC0867E62C
:102FD0000A00DB083A4300D16FE66246520713430A
:102FE0006246D40880221203144207D0C808104257
:102FF00004D15D460400FB0849070B435A0FDB0070
:10300000DB08520713435DE64B07FF083B43CC0840
:1030100049E6DC199C429B41614489465B429944E4
:103020004B461B0200D431E64A46174B1A40012397
:10303000914698462AE616006446203EF440A04693
:10304000202A05D040266446B21A944023439A466B
:103050005446631E9C4143461C43DBE502000024AA
:10306000002348E5DC19BC42BF41614489467F42E8
:10307000B94438E74B46234300D19FE606E6C046F5
:10308000FE070000FF070000FFFF7FFFFF084B0760
:103090003B43CC0816E66246DB0852071343624600
:1030A000D40880221203144207D0C808104204D169
:1030B0005D460400FB0849070B435A0FDB0052072B
:1030C000DB081343FEE50023014A1C0013E5C0465C
:1030D000FF07000070B505000C481C0316005B00DC
:1030E0000A034900120B490D240B5B0D814208D0E5
:1030F000064A0020934203D120003043431E9841EA
:1031000070BD01202A43FBD1F2E7C046FF07000053
:103110000A0030B5134C530009030500090B0020C9
:103120005B0DD20FA34204DD0F48834202DD0F4B3B
:10313000D01830BD8020400301430D48C01A1F281D
:1031400008DD0C48C31AD9400B005842002AF0D1C0
:103150001800EEE7084CC540A446634499400B00B4
:103160002B43F2E7FE0300001D040000FFFFFF7F7A
:103170003304000013040000EDFBFFFF70B50028CE
:1031800016D0C317C5185D40C40F280000F01CF905
:10319000114A121A0A2816DC03002E0015339E402D
:1031A0000B23181AC54052052D032D0B530D03E0B8
:1031B00000240023002500261B052B43E40723439E
:1031C0003000190070BD0B38854052052D030026D4
:1031D0002D0B530DF0E7C0461E04000010B5041E71
:1031E00010D000F0F1F80F4B1B1A0A2811DC0B224B
:1031F0002100121AD14015300A035B058440120BDE
:103200005B0D01E0002300221B0513432000190081
:1032100010BD22000B3882405B0512030024120B04
:103220005B0DF1E71E04000070B543004602C40FB9
:10323000FE201B0E591C750A08420CD0E022920099
:1032400094466D07360B63441B053343E407234361
:103250002800190070BD002B14D1002D1BD02800B0
:1032600000F0B2F80A281CDC0B232E001B1ADE40EB
:10327000030015339D400E4A3603121A5205360BD1
:10328000530DE1E7002D09D08022360B1203094BC4
:103290006D071643D8E700230026D5E70026054B27
:1032A000D2E703000B3B9D402E000025E3E7C0461C
:1032B00089030000FF07000002004B00F0B55B0D22
:1032C0000C033D4E640A400F5F1CC90F0443D50038
:1032D00037420AD039481E18FE2E16DDFF20002482
:1032E000C0052043C9070843F0BD002B06D12C437D
:1032F00026D005229201540AD8B2F1E72543EDD039
:103300008020C0030443FF20EAE7002E1BDD92016A
:10331000531E9A41E4006D0F22432A43530748D0BD
:103320000F231340042B00D004328023DB0413400E
:103330003FD0701CFE2ED1D09201540AC0B2CFE70C
:1033400000200024CCE73200173222DB802000046A
:1033500020431E24A41B1F2C1DDD02225242961B5B
:103360000200F2401600202C04D0154A9446634413
:10337000984005432A00531E9A41324300265307C2
:10338000CED180241300E404012023402242D3D173
:10339000B0E70023ADE70B4A94462A00E240140050
:1033A0002A0063449A409840551EAA410243224392
:1033B000E4E733009EE7C046FE07000080FCFFFF05
:1033C000A2FCFFFF82FCFFFF1C2101231B0498428B
:1033D00001D3000C10391B0A984201D3000A0839A6
:1033E0001B09984201D30009043902A2105C40185D
:1033F0007047C04604030202010101010000000001
:103400000000000010B5002903D1FFF7DDFF2030D8
:1034100002E00800FFF7D8FF10BDC04680B500AF3E
:10342000BFF34F8FC046044B044ADA60BFF34F8F9F
:10343000C046C046FDE7C04600ED00E00400FA05C6
:1034400080B582B000AF0200FB1D1A70FB1D1B7817
:10345000112B23D0FB1D1B78052B1FD0FB1D1B78C8
:10346000192B1BD0FB1D1B78172B17D0FB1D1B78AE
:103470000F2B13D0FB1D1B781B2B0FD0FB1D1B78B4
:10348000182B0BD0FB1D1B780E2B07D0FB1D1B78B8
:10349000132B03D0FB1D1B78062B01D1462300E024
:1034A00047231800BD4602B080BD000080B582B041
:1034B00000AF0200FB1D1A70FB1D1B785A1E044B47
:1034C00016214A43D35ADBB21800BD4602B080BD74
:1034D000E0140020F0B587B000AFB96011007B6048
:1034E0000F257B19021C1A700C26BB190A1C1A80A6
:1034F0001523FC1828220823D318DB191B78180081
:10350000FFF7D4FF0300237017243B1901221A7020
:103510007B191B78180016F0ABF8031E4CD07B19F2
:103520001A782A4B9200D3587A681100180016F0C6
:10353000A9FA031E40D11523FB181B781800FFF7CA
:103540007FFF0300472B0ED17B191B78180016F064
:103550008FF83C19BB191A88BB6819001EF032FBA2
:103560000300237028E01623FB1800221A701AE0CB
:103570000F23FB181B78180016F07AF81723FC1895
:10358000BB68012219001EF01DFB03002370BB68FD
:103590000133BB60022019F023FD16217B181A7835
:1035A0007B1801321A701623FB181B789BB20C2271
:1035B000BA1812889A42DBD80A2019F011FD172395
:1035C000FB181B781800BD4607B0F0BDB4240020DE
:1035D00080B500AF00F012F800F08EF800F0C0F8EF
:1035E00000F02AF900F0B8F900F0C4FA00F0F2FB9C
:1035F00000F066FDC046BD4680BD000090B583B0BA
:1036000000AF3B1D00221A70BB1D02221A80BB1C9A
:1036100000221A80334ABB1C12881A80BB1C1B88EC
:10362000314A934207D1314B01221A70304B0022AC
:103630001A70FA2351E0BB1C1B881B0A9BB2DAB23A
:103640002A4B1A70294B1B78002B02D1274B0122E1
:103650001A70BB1C1B88DAB2254B1A707B1D012225
:103660001A7032E07B1C00221A7024E0BB1D1B88FC
:103670001C4A9446634419007B1D1B785A1E7B1C10
:103680001B78DBB21C000B8898B21A4913009B0010
:103690009B185B009B181B195B00021C5A52BB1D38
:1036A000BA1D128802321A807B1C1B78DBB20133F0
:1036B000DAB27B1C1A707B1C1B78DBB20A2BD5D9C3
:1036C0007B1D1A787B1D01321A70084B1B787A1DFE
:1036D00012789A42C6D93B1D1B781800BD4603B02C
:1036E00090BDC04600000408FFFF000084000020D9
:1036F00008140020E014002080B582B000AFFB1D4C
:1037000000221A70BB1D01221A7019E0BB1D1B7824
:103710009BB2013398B2BB1D1B78013B5A000E4B84
:10372000D318190012F084F9BB1D1B78192B02D98C
:10373000FB1D0A221A70BB1D1A78BB1D01321A70BC
:10374000064B1B78BA1D12789A42DFD9FB1D1B78F5
:103750001800BD4602B080BD8837002084000020DC
:1037600090B583B000AFFB1C00221A70BB1D002275
:103770001A803B0000221A807B1D00221A704BE049
:103780003B1D01221A7033E0BB1D1B881C339BB20A
:103790003A001100180012F04BF93B0018887B1D0D
:1037A0001A783B1D1978C4B2214813009B009B185E
:1037B0005B00C318221C5A543B001B881B0A98B29A
:1037C0007B1D1A783B1D1B78591EC4B21848130084
:1037D0009B009B185B00C318221C5A54BB1D1A88FF
:1037E000BB1D01321A803B1D3A1D127802321A703D
:1037F0003B1D1B78092BC7D97B1D1A780C49130078
:103800009B009B185B00CB18093300221A707B1DAC
:103810001A787B1D01321A70064B1B787A1D1278BC
:103820009A42ADD9FB1C1B781800BD4603B090BD71
:10383000541700208400002090B583B000AFFB1C1B
:1038400000221A70BB1D00221A803B0000221A8041
:103850007B1D00221A707B1D00221A7015E0BB1D13
:103860001B88CB3398B27B1D1B785A00374BD3187B
:10387000190012F0DDF8BB1D1A88BB1D01321A8039
:103880007B1D1A787B1D01321A70314B1B787A1D13
:1038900012789A42E3D37B1D00221A704BE03B1D45
:1038A00001221A7033E0BB1D1B8899339BB23A008A
:1038B0001100180012F0BCF83B0018887B1D1A7824
:1038C0003B1D1978C4B2234813009B009B185B0072
:1038D000C318221C5A543B001B881B0A98B27B1D3C
:1038E0001A783B1D1B78591EC4B21A4813009B005E
:1038F0009B185B00C318221C5A54BB1D1A88BB1DA1
:1039000001321A803B1D3A1D127802321A703B1D9B
:103910001B78092BC7D97B1D1A780E4913009B0011
:103920009B185B00CB18093300221A707B1D1A7894
:103930007B1D01321A707B1D1B78092BAFD9FB1C34
:103940001B781800BD4603B090BDC046801800200B
:10395000840000207C140020F0B589B002AF0B2356
:10396000FB1800221A703B1D00221A80BB1C00228B
:103970001A8008217B1800221A80BB1D00221A80A1
:103980001726BB1900221A7000233B610023FB603D
:103990000D007C183B1D1900E42012F049F80300CB
:1039A00023807B191B88002B03D13B1D1A88BB1970
:1039B0001A7008257C193B1D1900E52012F038F813
:1039C00003002380BC1DBB1C1900E62012F030F858
:1039D000030023807B191B88002B0AD1BB1D1B8889
:1039E000002B06D13B1D1B881B04BA1C12889B1898
:1039F0003B6108257C193B1D1900E72012F018F8DF
:103A000003002380BC1DBB1C1900E82012F010F835
:103A1000030023807B191B88002B0AD1BB1D1B8848
:103A2000002B06D13B1D1B881B04BA1C12889B1857
:103A3000FB6008257C193B1D1900E92011F0F8FFF7
:103A4000030023807B191B88002B0BD13B1D1B8897
:103A50001B0A9BB2DAB2414B1A703B1D1B88DAB2CB
:103A60003F4B1A7008257C193B1D1900EA2011F004
:103A7000DFFF030023807B191B88002B0BD13B1D2C
:103A80001B881B0A9BB2DAB2364B1A703B1D1B888F
:103A9000DAB2354B1A7008257C193B1D1900EB2052
:103AA00011F0C6FF030023807B191B88002B0BD16C
:103AB0003B1D1B881B0A9BB2DAB22C4B1A703B1DB4
:103AC0001B88DAB22A4B1A70244B1B78002B11D0BA
:103AD000234B1B78002B0DD0204B1D78204B1B78DF
:103AE000FC6839691722BA18107800932B0022005D
:103AF00007F046FC1B4B1B78002B11D01A4B1B7890
:103B0000002B0DD0174B1D78174B1B78FC683969BB
:103B10001722BA18107800932B00220007F030FC0F
:103B2000124B1B78002B11D0114B1B78002B0DD0A2
:103B30000E4B1D780E4B1B78FC6839691722BA189A
:103B4000107800932B00220007F01AFC0B23FB18BF
:103B50001B781800BD4607B0F0BDC046011B002011
:103B6000021B0020031B0020041B0020051B00205B
:103B7000061B0020F0B585B000AF0F23FB18002214
:103B80001A700C26BC1908257A198A235B001100CB
:103B9000180011F04DFF03002380BB191B88002B78
:103BA0000CD17B191B88DAB2854B1A707B191B88E4
:103BB0001B0A9BB2DAB2824B5A7007E0814B1A782B
:103BC0007F4B1A707F4B5A787D4B5A700C26BC196C
:103BD00008257A198E235B001100180011F028FFC8
:103BE00003002380BB191B88002B0ED17B191B8877
:103BF0001BB29BB2DB0BDAB2714B1A717B191B88BB
:103C00005B089AB26E4BDA8007E06E4B1A796C4B08
:103C10001A716C4BDA886A4BDA800C257C190826FD
:103C2000BA191623FF331100180011F001FF030029
:103C300023807B191B88002B04D1BB191A88624B87
:103C40001A8003E0614B1A885F4B1A800C257C199F
:103C50000826BA198B235B001100180011F0E8FE4A
:103C6000030023807B191B88002B04D1BB191A8801
:103C7000554B5A8003E0554B5A88534B5A800C26BB
:103C8000BC1908257A191823FF331100180011F008
:103C9000CFFE03002380BB191B88002B0CD17B199E
:103CA0001B88DAB2484B1A717B191B881B0A9BB21E
:103CB000DAB2454B5A7107E0444B1A79424B1A71FC
:103CC000424B5A79404B5A710C257C190826BA1977
:103CD0008C235B001100180011F0AAFE0300238062
:103CE0000A23FC18BA1D1A23FF331100180011F023
:103CF0009FFE030023807B191B88002B0ED10A2313
:103D0000FB181B88002B09D1BB191B881A00BB1D8F
:103D10001B881B041A432C4B9A600CE02C4B1B781D
:103D2000002B04D0284BE12252029A6003E0274B7B
:103D30009A68254B9A600C26BC1908257A198D23A0
:103D40005B001100180011F073FE03002380BB1903
:103D50001B88002B0CD17B191B88DAB21A4B1A7303
:103D60007B191B881B0A9BB2DAB2174B5A7305E00A
:103D7000154B18225A73144B00221A730C257C1908
:103D80000826BA191C23FF331100180011F050FE49
:103D9000030023807B191B88002B05D1BB191B88CE
:103DA000DAB2094B9A7603E0084B9A7E064B9A7674
:103DB0000F23FB181B781800BD4605B0F0BDC046A8
:103DC000E01300201C000020E81300200000002069
:103DD000001B0020F0B5D6464F464646C0B588B019
:103DE00006AFBB1D00221A703B0000221A803B1D4B
:103DF00000221A80FB1C00221A70FB1D00221A7080
:103E00004CE1FB1D1B783B339BB29B009BB23C1DDE
:103E10003A001100180011F00BFE030023803B1D37
:103E20001B88002B00D034E13B001B881B0A9AB290
:103E3000FB1C1A70FB1C1B781B09DBB21A00FB1D54
:103E40001B7801339A4200D023E1FB1C1B780F2220
:103E5000134000D11DE1FB1D1B785A1CFB1C1B7875
:103E60000F210B40D8B295491300DB009B18CB18EB
:103E70000133021C1A703B001988FB1D1B785A1C69
:103E8000C8B28E491300DB009B18CB180833021C04
:103E90001A70FB1D1B783B339BB29B009BB2013316
:103EA0009BB23A001100180011F0C2FD3B001B88C4
:103EB0001B0A99B2FB1D1B785A1CC8B27F4913001C
:103EC000DB009B18CB180233021C1A703B001988C8
:103ED000FB1D1B785A1CC8B278491300DB009B18E5
:103EE000CB180533021C1A70FB1D1B783B339BB2A9
:103EF0009B009BB202339BB23A001100180011F0F4
:103F000097FD3B001B881B0A99B2FB1D1B785A1CAE
:103F1000C8B26A491300DB009B18CB180333021C9C
:103F20001A703B001988FB1D1B785A1CC8B26349E4
:103F30001300DB009B18CB180633021C1A70FB1D04
:103F40001B783B339BB29B009BB203339BB23A007E
:103F50001100180011F06CFD3B001B881B0A99B280
:103F6000FB1D1B785A1CC8B254491300DB009B1878
:103F7000CB180433021C1A703B001988FB1D1B78F8
:103F80005A1CC8B24D491300DB009B18CB180733ED
:103F9000021C1A70FB1D1B785A1C48491300DB00D9
:103FA0009B18CB1801331A78FB1D1B780133DBB249
:103FB0001900100013F004F8FB1D1B780133DBB26D
:103FC0009C46FB1D1B785A1C3C491300DB009B18C8
:103FD000CB1808331B7801221340DBB29846FB1D37
:103FE0001B785A1C35491300DB009B18CB1808338B
:103FF0001B785B10DBB201221340DBB29946FB1D3C
:104000001B785A1C2D491300DB009B18CB18023378
:104010001B789A46FB1D1B785A1C28491300DB00AD
:104020009B18CB1803331978FB1D1B785A1C2348A7
:104030001300DB009B18C31804331878FB1D1B7892
:104040005A1C1E4C1300DB009B18E31805331C7828
:10405000FB1D1B785A1C194D1300DB009B18EB1835
:1040600006331D78FB1D1B785A1C144E1300DB0011
:104070009B18F31807331B780022059204930395CD
:1040800002940190009153464A464146604613F01F
:10409000CFF9FB1D1A78FB1D01321A70FB1D1B782E
:1040A000062B00D8ADE6BB1D1B781800BD4602B03C
:1040B000E0BCBA46B146A846F0BDC046BC340020BC
:1040C00090B585B000AF0F23FB1800221A706F4B1C
:1040D000BB60322020F002FB03003B603B68002BFA
:1040E00001D1FB23CEE0BB681B78FE2B01D0FF2360
:1040F000C8E0FB1D00221A70B8E00F23FB18002255
:104100001A7010E0BB685A1CBA6019000F203B18E7
:104110001B783A68D3180A78D2B21A703B181A780A
:104120003B1801321A700F243B191B78132BE9D965
:10413000FB1D1A7813009B009B189B00544A98188B
:104140003B6801331422190020F0EEFC3B68142276
:104150000021180020F0F1FC3B1900221A70BB6806
:104160001433BB600FE0BA680F203B181B78396826
:10417000CB1812781A70BB680133BB603B183A1831
:10418000127801321A70BB681B78FE2B08D0BB680E
:104190001B78FF2B04D00F23FB181B78312BE2D99F
:1041A0000F217B181B78013B3A68D3181B78002B32
:1041B00004D07B187A18127801321A700F23FB187A
:1041C0001A78FB1D1C78100020F088FA03001900F3
:1041D0002F4A23009B001B199B00D3180C33196036
:1041E000FB1D1A782A4913009B009B189B00CB18D3
:1041F0000C331B68002B12D1FB1D1A7813009B0097
:104200009B189B00224A9B1814220021180020F0C2
:1042100094FC3B68180020F06BFA0E2332E0FB1D83
:104220001A781B4913009B009B189B00CB180C337A
:1042300018680F243B191A783B68190020F074FCA9
:10424000144B1B780133DAB2124B1A703B191A78EF
:104250003B680021180020F070FCBB681B78FE2B27
:104260000AD1FB1D1A78FB1D01321A70FB1D1B7849
:10427000042B00D841E700E0C0463B68180020F05E
:1042800037FA00231800BD4605B090BD00100408A1
:10429000601B0020C41B002080B582B000AFFB1D56
:1042A00000221A70BB1D01221A7021E0BB1D1B7871
:1042B0005A1E154B5200D35A002B0DD0BB1D1B7834
:1042C0009BB2013398B2BB1D1B785A1E0E4B520095
:1042D000D35A190011F00CFCBB1D1B78192B02D905
:1042E000FB1D0A221A70BB1D1A78BB1D01321A7001
:1042F000064B1B78BA1D12789A42D7D9FB1D1B7842
:104300001800BD4602B080BD883700208400002020
:1043100090B583B000AFFB1C00221A70BB1D0022B9
:104320001A803B0000221A807B1D00221A7048E090
:104330007B1D1A78294913009B009B185B005B5C6E
:10434000002B39D03B1D01221A7031E07B1D1A78F9
:104350003B1D1B78591E214813009B009B185B00D6
:10436000C3185B5C9BB21B0299B27B1D1A783B1D84
:1043700018781A4C13009B009B185B00E3181B5C19
:104380009AB23B008A181A80BB1D1B881C339AB254
:104390003B001B881900100011F0AAFBBB1D1A88F6
:1043A000BB1D01321A803B1D3A1D127802321A7071
:1043B0003B1D1B78092BC9D97B1D1A787B1D013247
:1043C0001A70074B1B787A1D12789A42B0D9FB1CE1
:1043D0001B781800BD4603B090BDC046541700209E
:1043E00084000020F0B587B000AFB9607A60190092
:1043F0000F243B19021C1A700E257B190A1C1A7017
:104400001726BB1900221A703B191B789BB21900A2
:10441000E42011F06DFBBB681B0A9BB21900E5207C
:1044200011F066FBBB689BB21900E62011F060FB3F
:104430007B681B0A9BB21900E72011F059FB7B68CF
:104440009BB21900E82011F053FB7B191B789BB23B
:104450001B029AB2202310241B19DB191B789BB274
:10446000D3189BB21900E92011F042FB24231B1939
:10447000DB191B789BB21B029AB228231B19DB198C
:104480001B789BB2D3189BB21900EA2011F030FBC5
:104490002C231B19DB191B789BB21B029AB2302309
:1044A0001B19DB191B789BB2D3189BB21900EB20A8
:1044B00011F01EFBBB191B781800BD4607B0F0BDFC
:1044C00080B582B000AFFB1D00221A70384B5B78BC
:1044D0005B011AB2364B1B781BB213431BB29AB264
:1044E0008A235B001100180011F002FB304B1B798E
:1044F000DB031AB22E4BDB881BB213431BB29AB2FA
:104500008E235B001100180011F0F2FA294B1A8873
:104510001623FF331100180011F0EAFA254B5A88D0
:104520008B235B001100180011F0E2FA214B5B793C
:104530001B021AB21F4B1B7B1BB213431BB29AB256
:104540001823FF331100180011F0D2FA194B9B68A1
:104550009AB28C235B001100180011F0C9FA154BB8
:104560009B681B0C9AB21A23FF331100180011F03C
:10457000BFFA104B5B7B1B021AB20E4B1B791BB2AE
:1045800013431BB29AB28D235B001100180011F087
:10459000AFFA084B9B7E9AB21C23FF331100180020
:1045A00011F0A6FAFB1D1B781800BD4602B080BDB5
:1045B000E0130020E813002080B582B000AFFB1D9F
:1045C00000221A701B4B34220021180020F0B5FA8B
:1045D000BB1D01221A7021E0BB1D1B785A1E154B12
:1045E0005200D35A002B0DD0BB1D1B789BB2013358
:1045F00098B2BB1D1B785A1E0E4B5200D35A19009D
:1046000011F076FABB1D1B78192B02D9FB1D0A226B
:104610001A70BB1D1A78BB1D01321A70064B1B782D
:10462000BA1D12789A42D7D9FB1D1B781800BD46D7
:1046300002B080BD883700208400002080B500AF24
:10464000074B1B68074A934206D011F083FA031EFA
:1046500002D1034B034A1A60C046BD4680BDC04626
:10466000F07F0020ADDEEFBEB0B58EB002AF1423F8
:10467000F8180A257A191823F9180823FB1800934B
:104680000300012011F068FE0C23F818BA1D102356
:10469000F9183B1D00930300022011F05DFE1C2160
:1046A0007B1801225A607B1800229A607B191B88B4
:1046B0001A007B181A60BB691A000C007B181900DD
:1046C00010001AF03FFC21007B1800225A607B1872
:1046D00002229A603B1D1B881A007B181A60FB6837
:1046E0001A007B18190010001AF02CFCBB69180086
:1046F0007B191B88002219001AF085FE052014F092
:10470000D7FAFB681A003B1D1B88190010001AF02D
:104710005DFE031E17D1BB6918007B191B8801229F
:1047200019001AF070FE052014F0C2FAFB681A0096
:104730003B1D1B88190010001AF048FE0300012BD6
:1047400001D1012300E000231800BD460CB0B0BD2C
:1047500090B585B000AF78600F23FB1800221A7067
:104760001CE00F243B191A78114913005B009B18B9
:104770009B00CB1808331A687B6811001800FBF700
:10478000C3FC031E04D13B191B780133DBB20BE0E1
:104790000F217B181A787B1801321A700F23FB182F
:1047A0001B78062BDDD900231800BD4605B090BD4F
:1047B000C801002080B584B000AF78600F23FB18DB
:1047C00000221A7041E0264A7B6811001800FBF7AE
:1047D0009BFC031E01D101233DE0224A7B681100AE
:1047E0001800FBF791FC031E01D1022333E01E4A9F
:1047F0007B6811001800FBF787FC031E01D103231F
:1048000029E01A4A7B6811001800FBF77DFC031EA3
:1048100001D104231FE0164A7B6811001800FBF742
:1048200073FC031E01D1052315E0124A7B681100B9
:104830001800FBF769FC031E01D106230BE00F21D2
:104840007B181A787B1801321A700F23FB181B781B
:10485000052BB8D900231800BD4604B080BDC04662
:1048600050B3020854B3020858B302085CB30208FC
:1048700060B3020864B3020880B582B000AF13F0E1
:1048800079FF14F033F910F093FD11F015FC10F0DE
:1048900043F914F073F910F0A7FC14F0A9F911F022
:1048A000ADFC031E03D0FFF7C9FEFEF7B7FDFFF70F
:1048B000DBFE031E21D03A4B01221A70322014F085
:1048C000F7F90DF075FE374BE12252029A60FB1D9D
:1048D00001221A700CE0334B9A68FB1D1B78110003
:1048E000180014F0A5FEFB1D1A78FB1D01321A708A
:1048F000FB1D1B78062BEED904E0322014F0D8F90A
:104900000DF056FEFEF764FE14F0DCFF10F0AEF979
:10491000254B1B78002B13D18023DB012348012278
:1049200019001AF070FDFA235B00180014F0C0F9AA
:104930008023DB011D48002219001AF064FD26E0E7
:104940008023DB011948012219001AF05CFDFA23CB
:104950005B00180014F0ACF98023DB01134800223F
:1049600019001AF050FD642014F0A2F98023DB0135
:104970000E48012219001AF046FD642014F098F93F
:104980008023DB010948002219001AF03CFD06F0E3
:1049900071F8074B01221A70C046BD4602B080BDB7
:1049A000001B0020E8130020081400200004005021
:1049B000791A002080B500AF18F08CFA0DF06EFA6D
:1049C000FFF75AFF06F080F815F01AF8C046BD460A
:1049D00080BD000080B586B002AF0200FB1D1A70DA
:1049E0000E23FB1800221A700F23FB1801221A70E5
:1049F00028E00F217A18FB1D12781B789A421BD0F1
:104A0000164B1B881B0A9BB2DAB2154B1A70134B5C
:104A10001B88DAB2124B5A70114B7A1812789A70BE
:104A20007B181878032300930A230022002106F044
:104A300065FF0A2014F0ECFF0F217B181A787B1811
:104A400001321A700F23FB181B78062BD1D90E23C5
:104A5000FB181B781800BD4604B080BD2400002060
:104A6000441A0020F0B58DB000AF1F23F91808706C
:104A700069460E0013211823CB18D919002008709D
:104A800015211823CB18D9190020087016211823D6
:104A9000CB18D9190020087017201823C318D9196A
:104AA0000020087014201823C318D919002008709A
:104AB000D5490978080001387862396100207861A9
:104AC0003A697B691000400F3A617B61DD00054364
:104AD0003B69DC003960002078603C687D68230019
:104AE000580F2B00DB00FB60FB680343FB602300D7
:104AF000DB00BB600B000733DB08DB006A46D31A20
:104B00009D466B4600333B6216211823CB18DB19F8
:104B100000221A7018E016201823C318DB191B781E
:104B20003A6A0021D1541823C318DB191A78B74BFD
:104B300052000021D1521823C318DB191A78182308
:104B4000C318DB1901321A70AF4B1B7816221821DB
:104B50005218D21912789A42DDD317211823CB1894
:104B6000DB1918228A18D219127801321A701F2301
:104B7000FB181B78013B3A6A080018240919C91967
:104B80000978D1541823C318DB1918228218D219B6
:104B9000127801321A70152318229B18DB19012292
:104BA0001A7054E01F23FB181B785A1E1524182373
:104BB000E318DB191878964913009B009B185B00DB
:104BC0009B181B185B005B5A002B36D01F23FB1869
:104BD0001B785A1E8D4B5200D35A1AB2200018234C
:104BE000C318DB191B78013B012199400B001BB254
:104BF000134319B21F23FB181B785A1E89B2834B2B
:104C00005200D1521F23FB181B785A1E1823C318B9
:104C1000DB1918787E4913009B009B185B009B18DA
:104C20001B185B005B5ADB089BB2013B3A6A1721F9
:104C300018200918C9190978D15415211823CB183F
:104C4000DB191A781823CB18DB1901321A701523D7
:104C500018229B18DB191B78062BA3D914231822C2
:104C60009B18DB1900221A7017221823D318DB199E
:104C700018215218D219127801321A7016231822EC
:104C80009B18DB1900221A70A2E0162318229B1829
:104C9000DB191B783A6AD35C1A00172318215B18BA
:104CA000DB191B78013B9A4200D087E015231822BC
:104CB0009B18DB1901221A7078E016241823E318D8
:104CC000DB191A7815251823EB18DB1918785049C9
:104CD00013009B009B185B009B181B185B005B5A22
:104CE000002B59D01823E318DB191A781823EB1876
:104CF000DB191878464913009B009B185B009B1832
:104D00001B185B005B5ADB089BB2013B3A6AD35C21
:104D1000002B41D120001823C318DB191A783B4B14
:104D20005200D35A1AB22C001823E318DB191B784F
:104D3000013B012199400B001BB2134319B2182308
:104D4000C318DB191A7889B2304B5200D15218239C
:104D5000C318DB191A781823E318DB1918782C49C3
:104D600013009B009B185B009B181B185B005B5A91
:104D7000DB089BB2013B3A6A172118200918C919B0
:104D80000978D15414221823D318DB19182152188A
:104D9000D219127801321A7015211823CB18DB1999
:104DA0001A781823CB18DB1901321A701523182230
:104DB0009B18DB191B78062B00D87EE716211823D9
:104DC000CB18DB191A781823CB18DB1901321A70AB
:104DD0000D4B1B78162218215218D21912789A42BC
:104DE00000D252E7142318229B18DB191B78002BE2
:104DF00000D033E7132318229B18DB191B78B54624
:104E00001800BD460DB0F0BD840000204414002001
:104E1000E0140020B0B594B000AF0200FB1D1A7082
:104E2000BB1D0A1C1A700823FB1800221A600433E9
:104E30002E22002118001FF080FE3B23FB180022C9
:104E40001A704F23FB1800221A703A23FB18002215
:104E50001A704E23FB1800221A70A04B1A22002150
:104E600018001FF06AFEFB1D1B78013B9C4A0021C5
:104E7000D154FB1D1B78013B9A4A0021D1540123D8
:104E8000BB6432E0FB1D1B785A1E974913009B0040
:104E90009B185B009B18BA6C9B185B005B5A002B3D
:104EA00020D0FB1D1B785A1E8F4913009B009B18B6
:104EB0005B009B18BA6C9B185B005B5ADB089AB2CC
:104EC000BB1D1B789BB29A420CD1BB1D1B78013BCA
:104ED000834A0121D154814BBA1D12781A70BB6CE0
:104EE000DBB2F6E0BB6C0133BB64BB6C062BC9DDE7
:104EF00001237B6411E0FB1D1B787A6C9A4209D078
:104F00007B6C013B764AFF21D1547B6C013B754A97
:104F10000021D1547B6C01337B64744B1B781A00E5
:104F20007B6C9342E7DD77E008243A196C4B110063
:104F3000180000F0DDF803001A004F217B18013241
:104F40001A707A18BB1D12781B789A426DD07B18A4
:104F50001B78013B3A190121D1544323FB1801224C
:104F60001A7054E04F243B191B785A1E43257B19B5
:104F700018785D4913009B009B185B009B181B1859
:104F80005B005B5A002B3CD03B191B785A1E7B19E7
:104F90001878554913009B009B185B009B181B1841
:104FA0005B005B5ADB089AB23A217B181A707B18B7
:104FB0001B78013B0822BA18D35C002B21D13B1986
:104FC0001B78013B464AD25C3B203B1801321A70E9
:104FD0007B181B78013B424AD35C05003A181278D3
:104FE0009A420ED208007B181B78013B3C4A791983
:104FF0000978D1543B181B78013B3A4A3919097892
:10500000D15443217B181A787B1801321A7043233C
:10501000FB181B78062BA5D90823FB18180000F0F5
:10502000ABF8031E00D17FE700E0C04613E04E223C
:10503000BB181B78BA18591C11701900274B4F2048
:105040003A1812785A5401007B181B785A1E7B18A4
:1050500024498A5C1A704F23FB181B78013B214AB4
:10506000D35C002BE3D10123FB632EE0FB1D1B78F7
:105070005A1E1D4913009B009B185B009B18FA6B7E
:105080009B185B005B5A002B1CD0FB1D1B785A1E23
:10509000154913009B009B185B009B18FA6B9B182B
:1050A0005B005B5ADB089AB2BB1D1B78013B0C49C5
:1050B000CB5C013B0949CB5C9BB29A4202D1FB6BB2
:1050C000DBB206E0FB6B0133FB63FB6B062BCDDD34
:1050D00000231800BD4614B0B0BDC04624250020F2
:1050E0001C17002038170020E01400208400002046
:1050F00080B584B000AF786039600F217B18FF2243
:105100001A700E23FB1800221A703B681B78002BC4
:1051100003D17B187A6812781A700023BB601BE0F9
:10512000BB687A68D3181B780F217A1812789A42D4
:105130000FD9BB683A68D3181B78002B09D1BB681C
:105140007A68D2187B1812781A700E23FB18BA6886
:105150001A70BB680133BB60064B1B781A00BB6832
:105160009342DDDB0E23FB181B781800BD4604B00C
:1051700080BDC0468400002080B584B000AF786058
:105180000F23FB1801221A700023BB600CE0BB68E0
:105190007A68D3181A780F217B18791809780A4091
:1051A0001A70BB680133BB60064B1B781A00BB68E2
:1051B0009342ECDB0F23FB181B781800BD4604B0AC
:1051C00080BDC04684000020F0B587B002AF020069
:1051D000FB1D1A70854A864B110018001FF0D2FE85
:1051E000834B1800FAF79AFF03009AB28049FB1D1F
:1051F000187801235B420093322314F087F90F23C0
:10520000FB1801221A701BE00F243B191A78794908
:10521000774B18001FF0B6FE754B1800FAF77EFFAB
:1052200003009AB27249FB1D187801235B42009378
:10523000322314F06BF93B191A783B1901321A70BA
:105240000F23FB181B78062BDED96B49FB1D187842
:1052500001235B4200933223032214F057F90E23FB
:10526000FB1800221A70ABE00E243B191B785A1C65
:1052700062495F4B18001FF085FE5D4B1800FAF77E
:105280004DFF03009AB25A49FB1D187801235B4277
:105290000093322314F03AF93B191A78584B16212F
:1052A0004A43D35A1A0013005B009B185B00554A0F
:1052B00099184F4B052218001FF0B9FE4C49FB1DF1
:1052C000187801235B4200933223052214F01EF963
:1052D0004D49FB1D187801235B42009332230122C4
:1052E00014F014F90D23FB1801221A7053E00E2359
:1052F000FB181A780D23FB181878414913009B00FE
:105300009B185B009B181B185B005B5A002B06D197
:105310003E49374B002218001FF034FE26E00E25D0
:105320007B191A780D26BB191878354913009B0094
:105330009B185B009B181B185B005B5ADB089BB239
:105340001C007B191A78BB1918782D4913009B0093
:105350009B185B009B181B185B005B5A1A00072305
:1053600013402B49224822001FF00CFE204B18004E
:10537000FAF7D4FE03009AB21D49FB1D18780123E9
:105380005B420093322314F0C1F80D217B181A7888
:105390007B1801321A700D23FB181B78062BA6D937
:1053A0001C49FB1D187801235B4200933223022223
:1053B00014F0ACF80E217B181A787B1801321A70A1
:1053C000154B1B780E22BA1812789A4200D24BE77E
:1053D0001249FB1D187801235B42009332230122FE
:1053E00014F094F8C046BD4605B0F0BD68B302089D
:1053F000B80C00207CB3020884B3020888B302080A
:10540000E014002078AD020894B3020898B30208B3
:105410009CB30208A4B3020884000020A8B30208C9
:1054200090B587B002AF0200FB1D1A703C4A3D4B9D
:10543000110018001FF0A6FD3A4B1800FAF76EFE97
:1054400003009AB23749FB1D187801235B42009391
:10545000322314F05BF80F23FB1801221A703EE090
:105460000E23FB1801221A702EE00F203B181B7828
:105470005A1E2D4B5200D35A19000E243B191B788B
:10548000013B802212021A4113000B4016D03B1838
:105490001A783B191B78254922481FF073FD214BD0
:1054A0001800FAF73BFE03009AB21E49FB1D18785C
:1054B00001235B420093322314F028F80E217B185D
:1054C0001A787B1801321A700E23FB181B780A2BEE
:1054D000CBD90F217B181A787B1801321A70144B24
:1054E0001B780F22BA1812789A42B9D9114A0D4B7B
:1054F000110018001FF046FD0A4B1800FAF70EFEC7
:1055000003009AB20749FB1D187801235B42009300
:10551000322313F0FBFFC046BD4605B090BDC04628
:10552000ACB30208B80C002088370020C8B30208CA
:1055300084000020DCB30208F0B589B002AF02009D
:10554000FB1D1A701223FB1800221A8014F0D8FBDE
:105550000300FB60FB6800221A70CA4B1B781A001C
:10556000C949CA4B18001FF00DFDC84AFB6811005D
:1055700018001FF027FDC64B1B781A00C549C34B06
:1055800018001FF0FFFCC14AFB68110018001FF053
:1055900019FDC149BD4806230093022300221FF0D4
:1055A000F1FCBA4AFB68110018001FF00BFDBB4A62
:1055B000BB49B64B18001FF0E5FCB44AFB6811006C
:1055C00018001FF0FFFCB74AB749B04B18001FF096
:1055D000D9FCAE4AFB68110018001FF0F3FCB34A77
:1055E000AA4B110018001FF0CDFCA84AFB6811005F
:1055F00018001FF0E7FC1723FB1801221A7048E07F
:1056000017243B191A78AA49A04B18001FF0BAFCBE
:105610009E4AFB68110018001FF0D4FC3B191B7850
:10562000A44AD35C042B27D89A00A34BD3181B6839
:105630009F46A24A954B110018001FF0A3FC1CE0E6
:105640009F4A924B110018001FF09CFC15E09D4AE8
:105650008E4B110018001FF095FC0EE09A4A8B4B00
:10566000110018001FF08EFC07E0984A874B1100CC
:1056700018001FF087FC00E0C046844AFB68110058
:1056800018001FF09FFC17217B181A787B18013235
:105690001A701723FB181B78062BB1D98C4A7B4B49
:1056A000110018001FF06EFC784AFB68110018000A
:1056B0001FF088FC1623FB1801221A7049E01620FF
:1056C0003B181B785A1E834913005B009B185B0133
:1056D0005B58002B0DD13B181A787F496B4B180093
:1056E0001FF050FC694AFB68110018001FF06AFCAB
:1056F00029E01626BB191C78BB191B785A1E754960
:1057000013005B009B185B01CB1828331B68180043
:105710000DF0B4FC03001D00BB191B785A1E6F4B23
:105720009200D35818000DF0A9FC03006C495748AB
:1057300000932B0022001FF025FC544AFB68110047
:1057400018001FF03FFC16217B181A787B180132D5
:105750001A701623FB181B78062BB0D9FB681800AB
:10576000FAF7DCFC03001A00FB689A185D4B100086
:10577000190003231A001FF0D7F9FB681800FAF785
:10578000CDFC03001A00FB689A18574B1000190053
:105790001D231A001FF0C8F9FB681800FAF7BEFCB9
:1057A00002001223FB181A801523FB1801221A701D
:1057B00023E0344B1B785A1E4C4B5200D35A19002D
:1057C00015203B181B78013B802212021A4113005E
:1057D0000B400CD03B181A7845492C4B18001FF091
:1057E000D1FB2A4AFB68110018001FF0EBFB1521C2
:1057F0007B181A787B1801321A701523FB181B7856
:10580000062BD6D91223FB181C88FB681800FAF760
:1058100085FC03009C420ED1FB681800FAF77EFC61
:1058200003001A00FB689A18324B10001900052378
:105830001A001FF079F9FB681800FAF76FFC0300F3
:105840001A00FB689A18274B1000190003231A004E
:105850001FF06AF9FB1D1B78002B0ED0FB681800A7
:10586000FAF75CFC03009AB2F968FB1D1878012373
:105870005B420093322313F049FEC046BD4607B099
:10588000F0BDC04608140020FCB30208B80C00208C
:10589000781A002018B4020834B4020854B402087C
:1058A00060B4020878B4020884B40208A0B4020804
:1058B000B4B402080C140020B8B50208BCB4020845
:1058C000C4B40208DCB40208E8B4020804B5020853
:1058D00024B50208B82F00203CB50208E0220020C1
:1058E00058B50208A4B3020888B50208883700201A
:1058F000A8B50208B0B5020890B585B000AF7860D1
:105900000E23FB1800221A700F23FB1800221A70B6
:105910004A4A7B6811001800FAF7F6FB031E03D110
:10592000474B1B781BB285E0464A7B681100180084
:10593000FAF7EAFB031E01D1FF237BE07B681B78AB
:10594000232B25D17B68013318001EF09CFE02003A
:105950000E217B181A700A00BB181B78002B0AD086
:10596000394B1B781100BA1812789A4203D87B1869
:105970001B781BB25EE0324B1B780E22BA181278ED
:105980009A4203D12E4B1B781BB253E0662351E0A1
:105990000F23FB1800221A701DE00F243B191A7800
:1059A00013009B009B185B00284A9A187B68110023
:1059B0001800FAF7A9FB031E07D17B681B78002BA0
:1059C00003D03B191B781BB234E00F217B181A78E7
:1059D0007B1801321A701C4B1B780F217A18127831
:1059E0009A42DAD37B1800221A701DE00F243B196B
:1059F0001A7813009B009B185B00154A9A187B6865
:105A000011001800FAF780FB031E07D13B191B7821
:105A10001B021BB2FE2213431BB20BE00F217B18AB
:105A20001A787B1801321A700F23FB181B78092B88
:105A3000DCD964231800BD4605B090BDCCB5020882
:105A400008140020D0B5020884000020541700205C
:105A50007C140020B0B586B000AF02003960FB1D99
:105A60001A701323FB1800221A7000237B61002395
:105A70007B610FE07B699A00404BD2183B681100B4
:105A80001800FAF741FB031E01D1062371E07B6980
:105A900001337B617B69032BECDD01237B6112E029
:105AA0007A6913009B009B185B00354A9A183B6883
:105AB00011001800FAF728FB031E01D1072358E054
:105AC0007B6901337B612F4B1B781A007B69934202
:105AD000E6DB00237B6112E07A6913009B009B18D0
